:100000000C9434000C9451000C9451000C94510049
:100010000C9451000C9451000C9451000C9451001C
:100020000C9451000C9451000C9451000C9451000C
:100030000C9451000C9451000C941D010C9451002F
:100040000C9451000C9451000C9451000C945100EC
:100050000C9451000C9451000C9451000C945100DC
:100060000C9451000C94510011241FBECFEFD4E02A
:10007000DEBFCDBF11E0A0E0B1E0E2EEF2E002C0F1
:1000800005900D92A630B107D9F711E0A6E0B1E0D6
:1000900001C01D92A830B107E1F70E9447010C94FE
:1000A0006F010C940000813029F0813038F08330EA
:1000B000D1F40FC080917C00806403C080917C00EB
:1000C0008F7B80937C0080917C008F7780937C0075
:1000D000089580917C00806480937C0080917C00F6
:1000E000806880937C000895813041F490917C0079
:1000F000906290937C00809307010895882339F4DF
:1001000080917C008F7D80937C0010920701089580
:10011000EAE7F0E09081987F90839081982B90831C
:10012000089590917C00907F90937C0090917C004A
:10013000982B90937C0080917A00806480937A0061
:1001400080917A0086FDFCCF80910701882329F4F5
:10015000209178003091790003C02091790030E03F
:10016000C9010895AF92BF92CF92DF92EF92FF92B2
:100170000F931F93DF93CF9300D000D000D0CDB763
:10018000DEB7DE011196E0E0F1E026E001900D928D
:100190002150E1F728EEC22E23E0D22EEE24FF24D8
:1001A00087015E010894A11CB11CA80EB91EF501BF
:1001B00080810E949100A0E0B0E0E80EF91E0A1FC5
:1001C0001B1F0894C108D108C114D10481F7C801CC
:1001D000B70128EE33E040E050E00E944D01C90134
:1001E00026960FB6F894DEBF0FBECDBFCF91DF913C
:1001F0001F910F91FF90EF90DF90CF90BF90AF9045
:100200000895813021F480917A00806803C0809144
:100210007A008F7780937A00089581E00E945300DE
:1002200080E00E94740086E00E94880081E00E94C5
:10023000010108950E940D0108951F920F920FB6BB
:100240000F9211248F939F9396B580910601890F89
:1002500087BD9F918F910F900FBE0F901F901895A3
:1002600082E484BD85E085BD8AEF87BD089580E482
:100270008AB98BB981E884BD85E085BD17BC089536
:100280008EE280937C0087E880937A0008950E9434
:10029000370180E887BD7894FFCFA1E21A2EAA1B10
:1002A000BB1BFD010DC0AA1FBB1FEE1FFF1FA21726
:1002B000B307E407F50720F0A21BB30BE40BF50B23
:1002C000661F771F881F991F1A9469F760957095AC
:1002D000809590959B01AC01BD01CF010895F894E4
:0202E000FFCF4E
:0602E20007060302010003
:00000001FF
