:100000000C9451000C9463000C9463000C94580100
:100010000C9463000C9463000C9463000C946300D4
:100020000C9463000C9463000C94AC010C946E016E
:100030000C9463000C9463000C9463000C946300B4
:100040000C9463000C9463000C9463000C946300A4
:100050000C9463000C9463000C9463000C94630094
:100060000C94E6000C946300B104CF03EA03C404CB
:10007000C404C404C404C404C404C404C404C40440
:10008000C404C404C404C404C404A803CD039B036F
:10009000F30309043404710452047604C40498047C
:1000A0008D0311241FBECFEFD4E0DEBFCDBF12E021
:1000B000A0E0B1E001C01D92A134B107E1F70E94B8
:1000C00040030C9419060C940000853691053CF40D
:1000D0008C392FEF92072CF48CE99FEF02C084E655
:1000E00090E04FEF489F9001499F300D1124C901C6
:1000F00064E670E00E94DD04CB01089585B1897F3C
:1001000085B925B18091070190910801880F822B54
:1001100085B9089586EA9EE090930A0180930901CB
:1001200090930C0180930B0190930E0180930D012D
:100130009093100180930F01109208011092070113
:1001400080910701909108010E947E0010920201A7
:100150001092060110920501109204015A9A089516
:1001600082EC8093810082E280936F000C948A007D
:100170002C9A28B1237F28B91816190614F4429A2C
:1001800004C0439A91958195910988BD0895811184
:100190000FC02B9A88B18C7F88B91616170614F4F5
:1001A000409A04C0419A71956195710967BD08959F
:1001B000813019F4CB010C94B8000895880F816048
:1001C0008093BA0085EC8093BC0008951F920F9233
:1001D0000FB60F9211242F933F938F939F93EF931A
:1001E000FF938091B900887F803A51F130F48036D6
:1001F00009F448C0803871F050C0883B71F1803CF0
:1002000009F444C0883A09F048C0809111019091E6
:1002100012012BC080911101909112018C3221E0CA
:100220009207DCF59C012F5F3F4F30931201209322
:1002300011012091BB00FC01ED5EFE4F208322C026
:100240008091110180933F021092120110921101CE
:1002500081E08093400284E016C08091110190916A
:1002600012018C3221E09207C4F49C012F5F3F4FB2
:100270003093120120931101FC01ED5EFE4F80814D
:100280008093BB0085EC8093BC0007C085EC809315
:10029000BC001092120110921101FF91EF919F91F9
:1002A0008F913F912F910F900FBE0F901F90189537
:1002B0001F920F920FB60F9211248F93189908C0B6
:1002C00088B18C7F88B92B9888B1837F88B92C98A6
:1002D0008F910F900FBE0F901F9018951F920F9245
:1002E0000FB60F9211242F933F934F935F936F9309
:1002F0007F938F939F93AF93BF93EF93FF938091DF
:10030000020191E0980F90930201853150F0109214
:1003100002010E948A0080910301813011F42B9820
:100320002C98809188009091890088579C4E9093DA
:10033000890080938800FF91EF91BF91AF919F91C9
:100340008F917F916F915F914F913F912F910F907E
:100350000FBE0F901F9018951F920F920FB60F921D
:1003600011242F933F934F935F936F937F938F93BA
:100370009F93AF93BF93CF93DF93EF93FF93F89443
:100380008091810086FF0CC080918600909187004B
:100390009093010180930001809181008F7BC4C004
:1003A000C0918600D0918700809100019091010159
:1003B000C81BD90BCE01855C9940833C994008F05D
:1003C000B0C010920201809104018130D9F5809172
:1003D00003018130B9F5CE01865A9E4097FD019602
:1003E000959587958F3F910509F03CF481302FEF6B
:1003F00092072CF481E09FEF02C08FEF90E02091F4
:1004000007013091080121303105B1F070F0223040
:10041000310541F023303105A9F4BC0180E00E9490
:10042000C70010C00E94B8000DC0863F9F4F14F453
:100430005B9808C05B9A06C0863F9F4F14F45C9897
:1004400001C05C9AE0910701F0910801CF0101968B
:100450009093080180930701EE0FFF1FE75FFE4FA7
:10046000D183C0838091040181114BC08091090127
:1004700090910A018633904108F043C080910901B0
:1004800090910A0187319D40E0F180910B0190919C
:100490000C0186339041A8F580910B0190910C01DD
:1004A00087319D4070F180910D0190910E0186334E
:1004B000904138F580910D0190910E0187319D405A
:1004C00000F180910F019091100186339041C8F4A2
:1004D00080910F019091100187319D4090F08091A3
:1004E0000501909106019C012F5F3F4F309306015B
:1004F000209305018536910520F081E08093040169
:100500005A988091070190910801049720F0109269
:1005100008011092070180910701909108010E9443
:100520007E00809181008064809381007894FF91A7
:10053000EF91DF91CF91BF91AF919F918F917F917B
:100540006F915F914F913F912F910F900FBE0F9040
:100550001F901895569A559A83EA84BD82E085BD0E
:1005600017BC18BC089580E480937C0087E88093D2
:100570007A00089590917C00907F90937C009091F8
:100580007C00982B90937C0080917A00806480930B
:100590007A0080917A0086FDFCCF8091780090915E
:1005A000790008950F931F93CF93DF9381110FC0AC
:1005B00004EF11E0C0E0D0E086E00E94BA02C80F6C
:1005C000D91F0150110901151105B1F710C0813073
:1005D00041F504EF11E0C0E0D0E087E00E94BA02EC
:1005E000C80FD91F0150110901151105B1F7CE012E
:1005F00064EF71E00E94C904CB0124E6289FB0019A
:10060000299F700D112480E090E00E948B052DEC55
:100610003CEC4CEC50E40E94F7040E945F05CB01D7
:1006200002C08FEF9FEFDF91CF911F910F9108953F
:10063000F894A895813091F463FF02C088E201C06C
:1006400088E06770682B88E190E00FB6F894A89571
:10065000809360000FBE609360000AC0811108C0E3
:1006600088E10FB6F89480936000109260000FBE8E
:100670007894089588B1807F88B92B9A2C9A089530
:1006800081E0809303012B982C985B985C98239AC7
:10069000389A399A569A539A249A3A9A3B9A559A82
:1006A000549A2098219A229A529A0E94AA020E9451
:1006B000B3020E94B00060E070E080E00E94C700DA
:1006C00080E090E00E94B80089E08093BA0085EC59
:1006D0008093BC0064E081E00E9418037894C4E039
:1006E000D0E0FF24F39409E010E0F2E0DF2EA3E075
:1006F000CA2EB5ECEB2EA895809140028823D9F341
:100700008091130190E0FC01F797ED31F10508F0BD
:100710003BC1EC5CFF4F0C94F1046091150170E05B
:10072000762F66279091160180911401690F711D33
:100730000E94C70029C180911401811105C088B1B0
:100740008C7F88B92B9820C1813009F01DC118C158
:1007500080911501992787FD90950E9465009091E1
:10076000140128B1207F28B9911103C098B1956078
:100770000EC0913019F498B19A6009C0923019F402
:1007800098B1966004C0933019F498B1996098B903
:1007900087BD88BD2B9A2C9AF7C02B98F4C0809106
:1007A000150190911401923049F4811102C05B98B7
:1007B000EBC0813009F0E8C05B9AE6C0933009F0E5
:1007C000E3C0811102C05C98DFC0813009F0DCC059
:1007D0005C9ADAC0809114010E94D20290931301B6
:1007E00080931401D1C0E0911401F0E0EE0FFF1FDF
:1007F000E75FFE4F6081718180E090E00E948B0591
:1008000020E030E040E250E40E94F7040E945F05DF
:1008100026C080911401811102C0C0921401809100
:100820001401813011F4D0921401E0911401F0E030
:10083000EE0FFF1FE75FFE4F80819181865A9E4039
:10084000B8010E94DD04653671053CF46C392FEF68
:1008500072072CF46CE97FEF02C064E670E07093DD
:1008600013016093140190C080911401823011F43F
:100870001092140180911401833011F4F09214014C
:10088000E0911401F0E0EE0FFF1FE75FFE4F808163
:1008900091818C399E401CF4F092130175C0109226
:1008A000130172C08091140181110AC010920301DA
:1008B00080918100887F8093810010926F0064C0D6
:1008C00080911401823019F41092030107C08091C5
:1008D0001401813009F058C0809303010E94B000D8
:1008E00053C080910401809313014EC08091810018
:1008F000887F8093810010926F00809116019E0185
:10090000281B3109309308012093070180910701CA
:10091000909108010E947E00289A80916B0081606E
:1009200080936B008091680081608093680019C09B
:1009300080918100887F8093810010926F00289AB7
:10094000809116019E01281B3109309308012093E4
:10095000070180910701909108010E947E00189B79
:100960000BC080911501992787FD90950E94650025
:10097000BC0180911401DCCE88B18C7F88B92B98A2
:1009800088B1837F88B92C98E092BC001092400215
:10099000B2CEAA1BBB1B51E107C0AA1FBB1FA617E3
:1009A000B70710F0A61BB70B881F991F5A95A9F718
:1009B00080959095BC01CD01089597FB072E16F404
:1009C000009407D077FD09D00E94C90407FC05D028
:1009D0003EF4909581959F4F0895709561957F4F56
:1009E0000895EE0FFF1F0590F491E02D09940CD0AF
:1009F000E6C0DED040F0D5D030F021F45F3F19F0F2
:100A0000C7C0511110C1CAC0EBD098F39923C9F3E4
:100A10005523B1F3951B550BBB27AA276217730704
:100A2000840738F09F5F5F4F220F331F441FAA1FB8
:100A3000A9F333D00E2E3AF0E0E830D09150504078
:100A4000E695001CCAF729D0FE2F27D0660F771F26
:100A5000881FBB1F261737074807AB07B0E809F008
:100A6000BB0B802DBF01FF2793585F4F2AF09E3F9D
:100A7000510568F08DC0D7C05F3FECF3983EDCF3C2
:100A8000869577956795B795F7959F5FC9F7880F16
:100A9000911D9695879597F90895E1E0660F771F68
:100AA000881FBB1F621773078407BA0720F0621BF9
:100AB000730B840BBA0BEE1F88F7E095089598D05E
:100AC00088F09F5790F0B92F9927B751A0F0D1F037
:100AD000660F771F881F991F1AF0BA95C9F712C0C1
:100AE000B13081F09FD0B1E008959CC0672F782F7E
:100AF0008827B85F39F0B93FCCF38695779567952D
:100B0000B395D9F73EF490958095709561957F4F98
:100B10008F4F9F4F0895E89409C097FB3EF490953E
:100B20008095709561957F4F8F4F9F4F9923A9F0C6
:100B3000F92F96E9BB279395F69587957795679555
:100B4000B795F111F8CFFAF4BB0F11F460FF1BC099
:100B50006F5F7F4F8F4F9F4F16C0882311F096E92C
:100B600011C0772321F09EE8872F762F05C06623DA
:100B700071F096E8862F70E060E02AF09A95660F93
:100B8000771F881FDAF7880F9695879597F908954C
:100B900097F99F6780E870E060E008959FEF80EC30
:100BA000089500240A9416161706180609060895D3
:100BB00000240A9412161306140605060895092E39
:100BC0000394000C11F4882352F0BB0F40F4BF2BA8
:100BD00011F460FF04C06F5F7F4F8F4F9F4F0895E8
:100BE00057FD9058440F551F59F05F3F71F04795DE
:100BF000880F97FB991F61F09F3F79F087950895C3
:100C0000121613061406551FF2CF4695F1DF08C0E1
:100C1000161617061806991FF1CF869571056105FE
:100C200008940895E894BB2766277727CB0197F9A6
:060C30000895F894FFCFC7
:00000001FF
