:100000000C9434000C9451000C9451000C94510049
:100010000C9451000C9451000C9451000C9451001C
:100020000C9451000C94E3070C9451000C94510073
:100030000C9451000C9451000C9451000C945100FC
:100040000C9451000C9451000C94C4070C94510072
:100050000C9451000C9451000C9451000C945100DC
:100060000C9451000C94510011241FBECFEFD4E02A
:10007000DEBFCDBF11E0A0E0B1E0E8EBF2E102C0ED
:1000800005900D92A630B107D9F713E0A6E0B1E0D4
:1000900001C01D92A033B107E1F70E9402090C9440
:1000A0005A090C940000DF93CF93CDB7DEB760E818
:1000B00075E280E090E00E94690081E00E94B20059
:1000C00081E00E94C10081E00E94E100CF91DF91B8
:1000D0000895DF93CF9300D000D0CDB7DEB769830A
:1000E0007A838B839C8389819A81AB81BC81880FC1
:1000F000991FAA1FBB1F880F991FAA1FBB1F880F1C
:10010000991FAA1FBB1F880F991FAA1FBB1F9C0105
:10011000AD0180E092E1AAE7B0E0BC01CD010E9410
:100120002409DA01C9010197A109B10989839A83D8
:10013000AB83BC8325EC30E089819A81AB81BC81A3
:10014000892F9A2FAB2FBB27F901808384EC90E095
:100150002981FC0120830F900F900F900F90CF9179
:10016000DF910895DF93CF930F92CDB7DEB78983E8
:1001700082EC90E026E0FC0120830F90CF91DF918C
:100180000895DF93CF930F92CDB7DEB7898389812E
:10019000813051F481EC90E021EC30E0F9012081D4
:1001A0002061FC01208309C081EC90E021EC30E06B
:1001B000F90120812F7EFC0120830F90CF91DF91E8
:1001C0000895DF93CF930F92CDB7DEB789838981EE
:1001D000813051F481EC90E021EC30E0F901208194
:1001E0002860FC01208309C081EC90E021EC30E024
:1001F000F9012081277FFC0120830F90CF91DF91AF
:100200000895DF93CF930F92CDB7DEB789830000B7
:1002100080EC90E0FC018081882F90E080729070EB
:1002200095958795959587959595879595958795B6
:1002300095958795009761F386EC90E02981FC0104
:1002400020830F90CF91DF910895DF93CF93CDB7A7
:10025000DEB7000080EC90E0FC0180818823D4F7B9
:1002600086EC90E0FC018081CF91DF910895DF93CF
:10027000CF9300D0CDB7DEB79A8389830BC0898135
:100280009A81FC0180810E94010189819A810196F5
:100290009A83898389819A81FC018081882379F7F7
:1002A0000F900F90CF91DF9108951F93DF93CF931D
:1002B000CDB7DEB728970FB6F894DEBF0FBECDBF1F
:1002C00098878F8311C08F8198859D838C838C81C3
:1002D0009D81FC0114911E838E810E9401018F81FA
:1002E0009885019698878F838F8198859A838983D3
:1002F00089819A81FC0114911B838B81882319F7D2
:1003000028960FB6F894DEBF0FBECDBFCF91DF9118
:100310001F910895DF93CF93CDB7DEB78DE00E9494
:1003200001018AE00E940101CF91DF910895DF93DE
:10033000CF930F92CDB7DEB78AE290E02AE230E0A9
:10034000F90120812460FC0120838AE290E02AE206
:1003500030E0F90120812860FC0120838BE290E0ED
:100360002BE230E0F90120812860FC01208384E247
:1003700090E02CE2FC0120838CE490E021E5FC017C
:1003800020838DE490E0FC01808189838EE490E0FD
:10039000FC01808189838BE290E02BE230E0F9015F
:1003A00020812460FC0120830F90CF91DF9108957C
:1003B000DF93CF930F92CDB7DEB789838EE490E0C1
:1003C0002981FC01208300008DE490E0FC01808104
:1003D0008823D4F78EE490E0FC0180810F90CF91C8
:1003E000DF910895DF93CF93CDB7DEB700000E9471
:1003F000FE018823E4F7CF91DF910895DF93CF9337
:100400000F92CDB7DEB78BE290E02BE230E0F9013E
:1004100020812B7FFC01208387ED0E94D80180E0A2
:100420000E94D80189838BE290E02BE230E0F90151
:1004300020812460FC01208389810F90CF91DF917E
:100440000895DF93CF93CDB7DEB728970FB6F89412
:10045000DEBF0FBECDBF9C838B837E836D835887A9
:100460004F831A8219828BE290E02BE230E0F9018F
:1004700020812B7FFC01208384E80E94D80180E04A
:100480000E94D8018B819C81892F99270E94D801D5
:100490008B810E94D80110C02D813E8189819A8173
:1004A000820F931FFC01208189819A8101969A8392
:1004B0008983822F0E94D80129813A818F81988572
:1004C0002817390748F38BE290E02BE230E0F9017E
:1004D00020812460FC01208381E028960FB6F894E7
:1004E000DEBF0FBECDBFCF91DF9108950F931F9355
:1004F000DF93CF93CDB7DEB728970FB6F894DEBF62
:100500000FBECDBF9C838B837E836D8358874F83C3
:100510001A8219828BE290E02BE230E0F90120810F
:100520002B7FFC01208384ED0E94D80180E00E9493
:10053000D8018B819C81892F99270E94D8018B81BA
:100540000E94D80180E00E94D80111C02D813E8117
:1005500089819A818901080F191F80E00E94D801C2
:10056000F801808389819A8101969A838983298100
:100570003A818F8198852817390740F38BE290E004
:100580002BE230E0F90120812460FC01208381E02E
:1005900028960FB6F894DEBF0FBECDBFCF91DF9186
:1005A0001F910F910895DF93CF9300D0CDB7DEB7A1
:1005B0009A8389838BE290E02BE230E0F90120817D
:1005C0002B7FFC01208383E80E94D80189819A81D6
:1005D000880F892F881F990B91950E94D8018981D6
:1005E000880F0E94D80180E00E94D8018BE290E041
:1005F0002BE230E0F90120812460FC0120830E947D
:10060000F20181E00F900F90CF91DF9108950F9349
:100610001F93DF93CF93CDB7DEB72A970FB6F89429
:10062000DEBF0FBECDBF9C838B837E836D835887D7
:100630004F833A8729871A8219828BE290E02BE256
:1006400030E0F90120812B7FFC01208382ED0E94A4
:10065000D8018B819C81880F892F881F990B9195D8
:100660000E94D8018B81282F220F8D819E81892F96
:100670009927820F0E94D8018D810E94D80180E0C5
:100680000E94D80180E00E94D80180E00E94D80139
:1006900080E00E94D80111C02F81388589819A811C
:1006A0008901080F191F80E00E94D801F80180839A
:1006B00089819A8101969A83898329813A818985E2
:1006C0009A852817390740F38BE290E02BE230E05F
:1006D000F90120812460FC01208381E02A960FB675
:1006E000F894DEBF0FBECDBFCF91DF911F910F9168
:1006F0000895DF93CF9300D0CDB7DEB71A82198269
:1007000009C089819A810E94960389819A81019604
:100710009A83898389819A818F3F910591F38CF324
:1007200081E00F900F90CF91DF910895DF93CF93E9
:1007300000D0CDB7DEB79A8389838BE290E02BE2BD
:1007400030E0F90120812B7FFC01208380E50E94AD
:10075000D80189819A81929582958F7089279F709F
:1007600089270E94D80189818295807F0E94D801C3
:1007700080E00E94D8018BE290E02BE230E0F901AA
:1007800020812460FC0120830E94F20181E00F900F
:100790000F90CF91DF910895DF93CF9300D000D0D9
:1007A00000D0CDB7DEB79D838C836E8319828E8196
:1007B00081508A832CC08981882F90E02C813D81D3
:1007C000820F931FFC0180818B838981882F90E0A9
:1007D0002C813D81820F931F2A81222F30E04C8192
:1007E0005D81240F351FF9012081FC0120838A815E
:1007F000882F90E02C813D81820F931F2B81FC017B
:10080000208389818F5F89838A8181508A8399813E
:100810008A81981780F226960FB6F894DEBF0FBE35
:10082000CDBFCF91DF9108950F931F93DF93CF93A7
:10083000CDB7DEB72A970FB6F894DEBF0FBECDBF97
:100840009D838C836E834F8328871A87098719823B
:100850008C819D819B838A838A819B8199233CF42F
:100860008C819D81909581959F4F9D838C838981FB
:10087000882F90E029853A85280F391F8E81482FCF
:1008800050E08C819D81BA010E941109805DF901BF
:1008900080838981882F90E029853A85820F931F74
:1008A000FC0180818A3398F08981882F90E0298526
:1008B0003A85820F931F2981222F30E049855A857E
:1008C000240F351FF9012081295FFC0120838981D4
:1008D0008F5F89838E81282F30E08C819D81B901C3
:1008E0000E9411099B013D832C838C819D811816E8
:1008F00019060CF4BCCF8F81882F90E082309105CF
:1009000009F455C08330910509F447C08130910541
:1009100071F076C08981882F90E029853A85820F11
:10092000931F20E3FC01208389818F5F8983998154
:100930008885981778F38A819B81992374F489813B
:10094000882F90E029853A85820F931F2DE2FC01C4
:10095000208389818F5F89830DC08981882F90E0F2
:1009600029853A85820F931F2BE2FC012083898120
:100970008F5F898389859A8569810E94CC0369C0CC
:100980008981882F90E029853A85820F931F20E383
:10099000FC01208389818F5F8983998188859817DD
:1009A00078F389859A8569810E94CC0352C08A8137
:1009B0009B819923DCF48981882F90E029853A85F1
:1009C000820F931F2DE2FC01208389818F5F898331
:1009D0000DC08981882F90E029853A85820F931F69
:1009E00020E2FC01208389818F5F8983998188853A
:1009F000981778F389859A8569810E94CC0329C06C
:100A00008A819B8199236CF48981882F90E02985C4
:100A10003A85820F931F2DE2FC01208389818F5F2D
:100A2000898389859A8569810E94CC030DC089815B
:100A3000882F90E029853A85820F931F20E2FC01E0
:100A4000208389818F5F898399818885981778F3BE
:100A500000008981882F90E029853A85820F931FB5
:100A6000FC0110822A960FB6F894DEBF0FBECDBFF0
:100A7000CF91DF911F910F9108950F931F93DF93F3
:100A8000CF93CDB7DEB763970FB6F894DEBF0FBE36
:100A9000CDBF9A8B898B6B8B89899A896AE043E0F9
:100AA0002B89FE0131968F010E941404CE0101961C
:100AB0000E94370163960FB6F894DEBF0FBECDBF1C
:100AC000CF91DF911F910F9108950F931F93DF93A3
:100AD000CF93CDB7DEB763970FB6F894DEBF0FBEE6
:100AE000CDBF9A8B898B6B8B89899A896AE041E0AB
:100AF0002B89FE0131968F010E941404CE010196CC
:100B00000E94370163960FB6F894DEBF0FBECDBFCB
:100B1000CF91DF911F910F9108950F931F93DF9352
:100B2000CF93CDB7DEB763970FB6F894DEBF0FBE95
:100B3000CDBF9A8B898B6B8B89899A8962E043E060
:100B40002B89FE0131968F010E941404CE0101967B
:100B50000E94370163960FB6F894DEBF0FBECDBF7B
:100B6000CF91DF911F910F9108950F931F93DF9302
:100B7000CF93CDB7DEB763970FB6F894DEBF0FBE45
:100B8000CDBF9A8B898B6B8B89899A8960E143E011
:100B90002B89FE0131968F010E941404CE0101962B
:100BA0000E94370163960FB6F894DEBF0FBECDBF2B
:100BB000CF91DF911F910F9108950F931F93DF93B2
:100BC000CF93CDB7DEB765970FB6F894DEBF0FBEF3
:100BD000CDBF9A8B898B6B8B4C8B2D8B89899A8996
:100BE0006B894C892D89FE0131968F010E94140476
:100BF000CE0101960E94370165960FB6F894DEBFCC
:100C00000FBECDBFCF91DF911F910F910895DF935C
:100C1000CF930F92CDB7DEB789838981882F90E07B
:100C20008130910531F08330910549F10097A1F0B1
:100C300039C08CE790E02CE730E0F9012081206496
:100C4000FC0120838CE790E02CE730E0F901208163
:100C50002F77FC01208326C08CE790E02CE730E062
:100C6000F90120812F7BFC0120838CE790E02CE7A9
:100C700030E0F90120812F77FC01208313C08CE73D
:100C800090E02CE730E0F90120812064FC01208312
:100C90008CE790E02CE730E0F90120812068FC012E
:100CA000208300000F90CF91DF910895DF93CF93C1
:100CB0000F92CDB7DEB789838981813069F48CE7E3
:100CC00090E02CE730E0F90120812062FC012083D4
:100CD00081E0809328030EC08981882359F48CE732
:100CE00090E02CE730E0F90120812F7DFC0120838A
:100CF000109228030F90CF91DF910895DF93CF9347
:100D00000F92CDB7DEB789838AE790E02AE730E01B
:100D1000F9012081287FFC0120838AE790E02AE7FF
:100D200030E0F90130812981232BFC0120830F90D1
:100D3000CF91DF910895DF93CF930F92CDB7DEB7B8
:100D400089838CE790E02CE730E0F9012081207F57
:100D5000FC0120838CE790E02CE730E0F901308142
:100D60002981232BFC0120838AE790E02AE730E0E9
:100D7000F90120812064FC01208300008AE790E0D3
:100D8000FC018081882F90E080749070082E892F5C
:100D9000000C881F990B000C881F991F009771F792
:100DA00080912803882331F488E790E0FC0180815A
:100DB000918106C089E790E0FC018081882F90E056
:100DC0000F90CF91DF910895DF93CF93CDB7DEB72A
:100DD0002E970FB6F894DEBF0FBECDBF9E878D87CE
:100DE00019821A821B821C82CE01079620E031E014
:100DF00046E0F90100802F5F3F4FFC010082019621
:100E000041504423B1F71E821D821FC09E01295FFD
:100E10003F4F8D859E85820F931FFC0180810E942C
:100E20009B06CC01A0E0B0E029813A814B815C8136
:100E3000820F931FA41FB51F89839A83AB83BC8342
:100E40008D819E8101969E838D838D819E81F3E0AD
:100E5000883E9F07D8F289819A81AB81BC8128EEB8
:100E600033E040E050E0BC01CD010E942409298319
:100E70003A834B835C8389819A812E960FB6F894CE
:100E8000DEBF0FBECDBFCF91DF910895DF93CF932B
:100E90000F92CDB7DEB789838981813051F48AE71B
:100EA00090E02AE730E0F90120812068FC012083EE
:100EB00009C08AE790E02AE730E0F90120812F7726
:100EC000FC0120830F90CF91DF910895DF93CF93A2
:100ED000CDB7DEB781E00E94070680E00E9456068B
:100EE00086E00E947E0681E00E944607CF91DF9156
:100EF0000895DF93CF930F92CDB7DEB789830E9419
:100F000066070F90CF91DF910895DF93CF9300D0C4
:100F1000CDB7DEB79A83898389819A81009751F092
:100F200089819A8104C00000000000000000019740
:100F3000D1F701C000000F900F90CF91DF9108957D
:100F40000F931F93DF93CF9300D000D0CDB7DEB7C0
:100F50009C838B838B819C81009761F08B819C812A
:100F6000E0EDF7E03197F1F70197D1F78F011A83A0
:100F7000098301C000000F900F900F900F90CF9148
:100F8000DF911F910F9108951F920F920FB60F924C
:100F900011248F939F93EF93FF93DF93CF930F923F
:100FA000CDB7DEB786EC90E0FC01808189830F909D
:100FB000CF91DF91FF91EF919F918F910F900FBE95
:100FC0000F901F9018951F920F920FB60F92112439
:100FD0002F933F934F935F936F937F938F939F9341
:100FE000AF93BF93EF93FF93DF93CF93CDB7DEB76C
:100FF0009091060181E09F3108F480E09F5F90931B
:101000000601882309F46FC01092060187E00E9450
:101010009B0680930B0386E00E949B0680930A0345
:1010200020910701822F90E030912E03865F9E4F22
:10103000FC013083822F8F5F80930701209107018D
:10104000822F90E030912F03865F9E4FFC0130830A
:10105000822F8F5F8093070120910701822F90E0FC
:1010600030910901865F9E4FFC013083822F8F5F94
:101070008093070120910701822F90E030910B03AC
:10108000865F9E4FFC013083822F8F5F8093070124
:1010900020910701822F90E030910A03865F9E4FD6
:1010A000FC013083822F8F5F8093070180910701BD
:1010B00080912E038F5F80932E0380912E038D33BA
:1010C00090F010922E0380912F038F5F80932F0357
:1010D00080912F03893138F010922F0380910901FC
:1010E0008F5F80930901CF91DF91FF91EF91BF91C5
:1010F000AF919F918F917F916F915F914F913F91B0
:101100002F910F900FBE0F901F901895DF93CF93E4
:101110000F92CDB7DEB78983F89481E690E020E89E
:10112000FC01208381E690E02981FC0120837894F2
:101130000F90CF91DF910895DF93CF93CDB7DEB7B6
:1011400086EB90E026EB30E0F90120812062FC0183
:10115000208381EB90E021EB30E0F90120812160D8
:10116000FC01208381EB90E021EB30E0F90120814C
:101170002460FC01208380E790E020E730E0F90163
:1011800020812160FC01208387E390E027E330E0A9
:10119000F90120812160FC012083CF91DF91089526
:1011A000DF93CF9300D0CDB7DEB79A8389832981AF
:1011B0003A81C901880F991F820F931F8855924069
:1011C0002AE030E0B9010E9411099B01C9010F908A
:1011D0000F90CF91DF910895DF93CF93CDB7DEB716
:1011E00084EC90E021E0FC01208381EC90E028E198
:1011F000FC01208382EC90E026E0FC012083CF916B
:10120000DF910895DF93CF93CDB7DEB70E94EC084E
:101210000E94660780E00E9456060E949C0878940F
:10122000FFCF97FB092E07260AD077FD04D02ED0DA
:1012300006D000201AF4709561957F4F0895F6F757
:10124000909581959F4F0895A1E21A2EAA1BBB1B72
:10125000FD010DC0AA1FBB1FEE1FFF1FA217B30782
:10126000E407F50720F0A21BB30BE40BF50B661F98
:10127000771F881F991F1A9469F76095709580955C
:1012800090959B01AC01BD01CF010895AA1BBB1B2A
:1012900051E107C0AA1FBB1FA617B70710F0A61B76
:1012A000B70B881F991F5A95A9F780959095BC0197
:0812B000CD010895F894FFCF71
:0612B8000706030201001D
:00000001FF
