:100000000C9434000C9451000C9451000C94510049
:100010000C9451000C9451000C9451000C9451001C
:100020000C9451000C9451000C9451000C9451000C
:100030000C9451000C9451000C944C090C945100F8
:100040000C943D0C0C9451000C9451000C945100F4
:100050000C9451000C9451000C9451000C945100DC
:100060000C9465030C94510011241FBECFEFD4E013
:10007000DEBFCDBF12E0A0E0B1E0E6E6F8E202C0EC
:1000800005900D92A631B107D9F713E0A6E1B2E0D1
:1000900001C01D92A235B107E1F70E944D0C0C94EE
:1000A00031140C940000DF93CF9300D0CDB7DEB7AE
:1000B0009A83898389819A810097B1F089819A8195
:1000C00010C0000000000000000000000000000060
:1000D0000000000000000000000000000000000020
:1000E0000000019771F701C000000F900F90CF91B1
:1000F000DF9108950F931F93DF93CF9300D000D02B
:10010000CDB7DEB79C838B838B819C81009761F098
:100110008B819C81E8E8F3E13197F1F70197D1F702
:100120008F011A83098301C000000F900F900F9078
:100130000F90CF91DF911F910F910895DF93CF938F
:1001400000D000D000D0CDB7DEB78D836E838D8117
:100150000E943D018D816CEC0E94B4018D8164E4AC
:100160000E94B4018D810E943D018D816CEC0E9442
:10017000B4018D816EEB0E94B4018D810E94370223
:1001800089838D810E9437028A838A81882F90E03B
:10019000382F22278981882F90E0820F931F9C831C
:1001A0008B838B819C816E810E94E3009C838B8377
:1001B0008B819C8126960FB6F894DEBF0FBECDBF13
:1001C000CF91DF910895DF93CF9300D00F92CDB7F9
:1001D000DEB79A8389836B838B81882F90E00097A9
:1001E00021F08230910529F140C089819A819923BB
:1001F000ACF489819A81909581959F4F92958295D3
:100200008F7089279F7089279A83898389819A8132
:10021000909581959F4F9A83898327C089819A8180
:10022000929582958F7089279F7089279A838983F9
:100230001CC089819A8199233CF489819A81909587
:1002400081959F4F9A83898389819A81AC014F70F0
:10025000507021E732E0429FC001439F900D529FB2
:10026000900D11249A838983000089819A810F90CF
:100270000F900F90CF91DF910895DF93CF9300D02F
:10028000CDB7DEB78A83198288E290E028E230E0B9
:10029000F9012081622F2A81422F50E021E030E0D5
:1002A00002C0220F331F4A95E2F720952623FC0156
:1002B000208387E290E027E230E0F9012081622F7D
:1002C0002A81422F50E021E030E002C0220F331F8C
:1002D0004A95E2F7262BFC01208384EF91E00E94EF
:1002E000530087E290E027E230E0F9012081622F9D
:1002F0002A81422F50E021E030E002C0220F331F5C
:100300004A95E2F720952623FC0120838BE490E0B8
:100310000E94530086E290E0FC018081282F30E0AB
:100320008A81482F50E081E090E0042E02C0880FBF
:10033000991F0A94E2F7822393232A81222F30E027
:10034000022E02C0959587950A94E2F7009711F066
:100350008FEF898384EF91E00E94530089810F9091
:100360000F90CF91DF910895DF93CF9300D00F923C
:10037000CDB7DEB78A836B8319826FC088E290E0C5
:1003800028E230E0F9012081622F2A81422F50E0DB
:1003900021E030E002C0220F331F4A95E2F720959A
:1003A0002623FC01208387E290E027E230E0F90178
:1003B0002081622F2A81422F50E021E030E0042E7C
:1003C00002C0220F331F0A94E2F7262BFC01208380
:1003D0008B81882F90E0817090700097D9F48CE326
:1003E00090E00E94530087E290E027E230E0F901BC
:1003F0002081622F2A81422F50E021E030E0042E3C
:1004000002C0220F331F0A94E2F720952623FC0135
:1004100020831DC085E090E00E94530087E290E0B9
:1004200027E230E0F9012081622F2A81422F50E03B
:1004300021E030E002C0220F331F4A95E2F72095F9
:100440002623FC0120838CE390E00E9453008B81E3
:1004500086958B8389818F5F89838981883008F4B1
:100460008DCF0F900F900F90CF91DF910895DF9374
:10047000CF9300D00F92CDB7DEB78B83198274C0B3
:100480008A8186958A838A8180688A8388E290E05F
:1004900028E230E0F9012081622F2B81422F50E0C9
:1004A00021E030E002C0220F331F4A95E2F7209589
:1004B0002623FC01208387E290E027E230E0F90167
:1004C0002081622F2B81422F50E021E030E002C0DA
:1004D000220F331F4A95E2F7262BFC01208385E08B
:1004E00090E00E94530087E290E027E230E0F901BB
:1004F0002081622F2B81422F50E021E030E002C0AA
:10050000220F331F4A95E2F720952623FC01208312
:1005100085E090E00E94530086E290E0FC0180813B
:10052000282F30E08B81482F50E081E090E0042EAE
:1005300002C0880F991F0A94E2F7822393232B812C
:10054000222F30E0022E02C0959587950A94E2F79B
:10055000009719F48A818F778A838CE390E00E9458
:10056000530089818F5F89838981883008F488CF1F
:100570008A810F900F900F90CF91DF910895DF93B4
:10058000CF930F92CDB7DEB7898368E97BEA82E02B
:1005900090E00E94E30278940F90CF91DF9108954C
:1005A000DF93CF93CDB7DEB78CEB90E0FC01808179
:1005B000282F21708CEB90E0FC0180818071822BD0
:1005C000CF91DF910895DF93CF93CDB7DEB76097DA
:1005D0000FB6F894DEBF0FBECDBF6D877E878F87C5
:1005E000988BCE01059626E031E048E0F9010080C5
:1005F0002F5F3F4FFC010082019641504423B1F729
:100600001A82198280E09DE2A1E3B1E02D853E854A
:100610004F855889BC01CD010E94BB13DA01C90185
:100620004097A109B10929813A81220F331FAE01F8
:100630004F5F5F4F240F351F2C5F3F4FF901208123
:100640003181220F331F990140E050E0BC01CD0100
:100650000E94BB13DA01C9019C838B8389819A8133
:1006600001969A8389838B819C818F3F910509F044
:1006700048F68B819C818C30910520F288EB90E0CC
:100680002B81FC01208389EB90E029EB30E0F9011C
:1006900020812C7FFC01208389EB90E029EB30E066
:1006A000F901308129812150232BFC0120838CEB1F
:1006B00090E024E0FC01208360960FB6F894DEBF42
:1006C0000FBECDBFCF91DF9108951F920F920FB64D
:1006D0000F9211242F933F934F935F938F939F9388
:1006E000EF93FF93DF93CF93CDB7DEB789EB90E025
:1006F000FC018081882F90E0887F9070883291057E
:1007000009F470C08932910594F480319105D1F1DA
:100710008131910524F488309105F1F0CAC0883107
:100720009105B1F18032910509F44AC0C2C0883404
:10073000910509F451C0893491052CF48034910558
:1007400009F444C0B6C08035910509F477C08835F6
:10075000910509F49CC0ADC01092170210921602C8
:100760002BEB30E08091160290911702AC01485EAD
:100770005D4FFA014081F901408301969093170281
:10078000809316028CEB90E025E8FC01208396C054
:100790002BEB30E08091160290911702AC01485E7D
:1007A0005D4FFA014081F901408301969093170251
:1007B000809316028CEB90E025E8FC0120837EC03C
:1007C0008CEB90E025EAFC01208378C08CEB90E074
:1007D00025ECFC01208372C08CEB90E025EAFC0143
:1007E00020836CC080914D0390914E039C012F5F3C
:1007F0003F4F809116029091170282179307C0F421
:100800002BEB30E08091160290911702AC01485E0C
:100810005D4FFA014081F9014083019690931702E0
:10082000809316028CEB90E025E8FC01208346C003
:100830008CEB90E024E9FC01208340C080911602FB
:10084000909117022BEB30E0F90140819C01285E6A
:100850003D4FF90140830196909317028093160251
:10086000209116023091170280914D0390914E0312
:100870002817390730F48CEB90E025ECFC0120833D
:100880001DC08CEB90E025E8FC01208317C080910F
:100890001602909117022BEB30E0F9012081885E5F
:1008A0009D4FFC0120838CEB90E024E9FC01208328
:1008B00005C08CEB90E024E0FC012083CF91DF9118
:1008C000FF91EF919F918F915F914F913F912F9168
:1008D0000F900FBE0F901F901895DF93CF93CDB759
:1008E000DEB700000E94D0028823E1F781E090E0AB
:1008F00090934E0380934D0384E08093180282E02E
:10090000809319028CEB90E025EAFC012083000023
:100910000E94D0028823E1F782E090E090934E039A
:1009200080934D0385E0809318028CEB90E025EADC
:10093000FC01208300000E94D0028823E1F780910F
:100940001902882F90E0382F222780911A02882FD1
:1009500090E0820F931FCF91DF910895DF93CF93A3
:1009600000D0CDB7DEB789836A8300000E94D00231
:100970008823E1F783E090E090934E0380934D034A
:1009800084E08093180282E2809319028981809327
:100990001A028A8180931B028CEB90E025EAFC010D
:1009A00020830F900F90CF91DF910895DF93CF9325
:1009B00000D000D0CDB7DEB78A837C836B838B8178
:1009C0009C810E942814898300000E94D002882301
:1009D000E1F78981882F90E0029690934E038093EF
:1009E0004D0384E08093180281E2809319028A818A
:1009F00080931A0283E0898313C08981882F90E055
:100A00002B813C81F9012081885E9D4FFC01208370
:100A100089818F5F89838B819C8101969C838B83E5
:100A20008B819C81FC018081882339F78CEB90E0DD
:100A300025EAFC0120830F900F900F900F90CF912B
:100A4000DF910895DF93CF9300D000D0CDB7DEB70C
:100A500089837B836A834C8300000E94D0028823B1
:100A6000E1F785E090E090934E0380934D0384E09E
:100A70008093180283E080931902898180931A027F
:100A80008A819B81892F992780931B028A81809379
:100A90001C028C8180931D028CEB90E025EAFC0106
:100AA00020830F900F900F900F90CF91DF910895BA
:100AB000DF93CF9300D000D0CDB7DEB789837B839F
:100AC0006A834C8300000E94D0028823E1F785E00E
:100AD00090E090934E0380934D0384E0809318023E
:100AE00086E280931902898180931A028A819B8110
:100AF000892F992780931B028A8180931C028C8105
:100B000080931D028CEB90E025EAFC0120830F907E
:100B10000F900F900F90CF91DF910895DF93CF93B7
:100B200000D000D0CDB7DEB789837B836A834C8346
:100B300000000E94D0028823E1F785E090E09093C6
:100B40004E0380934D0384E08093180288E28093E3
:100B50001902898180931A028A819B81892F9927A2
:100B600080931B028A8180931C028C8180931D02DA
:100B70008CEB90E025EAFC0120830F900F900F9002
:100B80000F90CF91DF910895DF93CF9300D000D0E5
:100B9000CDB7DEB789837B836A834C8300000E94D4
:100BA000D0028823E1F785E090E090934E03809394
:100BB0004D0384E08093180287E2809319028981B3
:100BC00080931A028A819B81892F992780931B0227
:100BD0008A8180931C028C8180931D028CEB90E0B3
:100BE00025EAFC0120830F900F900F900F90CF917A
:100BF000DF910895DF93CF9300D000D0CDB7DEB75B
:100C00008B836C8300000E94D0028823E1F782E18D
:100C100090E090934E0380934D0384E080931802FC
:100C200089E2809319028B8180931A021A821982B9
:100C30000DC089819A810396885E9D4F2FEFFC013C
:100C4000208389819A8101969A8389838C81282FB8
:100C500030E089819A81821793075CF30DC0898106
:100C60009A810396885E9D4F20E2FC012083898152
:100C70009A8101969A83898389819A81803191052D
:100C800074F38CEB90E025EAFC0120830F900F9029
:100C90000F900F90CF91DF910895DF93CF93CDB751
:100CA000DEB700000E94D0028823E1F781E090E0E7
:100CB00090934E0380934D0384E08093180285E265
:100CC000809319028CEB90E025EAFC012083CF9100
:100CD000DF910895DF93CF93CDB7DEB700000E9478
:100CE000D0028823E1F781E090E090934E03809357
:100CF0004D0384E0809318028DE2809319028CEBFF
:100D000090E025EAFC01208300000E94D0028823A5
:100D1000E1F782E090E090934E0380934D0385E0ED
:100D2000809318028CEB90E025EAFC012083000000
:100D30000E94D0028823E1F780911902CF91DF91C0
:100D40000895DF93CF9300D0CDB7DEB79A83898320
:100D500000000E94D0028823E1F783E090E09093A6
:100D60004E0380934D0384E0809318028CE28093BD
:100D7000190289819A81892F992780931A02898182
:100D800080931B028CEB90E025EAFC0120830F90FE
:100D90000F90CF91DF910895DF93CF93CDB7DEB75A
:100DA00027970FB6F894DEBF0FBECDBF9E838D830D
:100DB0006F8383E090E09C838B8300000E94D002CD
:100DC0008823E1F78F81882F90E0880F991F880F83
:100DD000991F029690934E0380934D0384E0809375
:100DE000180284E0809319028F8180931A021A827C
:100DF000198235C089819A81880F991F2D813E8182
:100E0000820F931FFC0180819181892F9927282FC0
:100E10008B819C81885E9D4FFC0120838B819C810E
:100E200001969C838B8389819A81880F991F2D81DC
:100E30003E81820F931FFC0180819181282F8B813D
:100E40009C81885E9D4FFC0120838B819C81019653
:100E50009C838B8389819A8101969A8389838F8170
:100E6000882F90E09C01220F331F89819A8182177D
:100E700093070CF4BFCF8CEB90E025EAFC012083B4
:100E800027960FB6F894DEBF0FBECDBFCF91DF918E
:100E90000895DF93CF9300D0CDB7DEB789836A83FF
:100EA00000000E94D0028823E1F783E090E0909355
:100EB0004E0380934D0384E08093180280E3809377
:100EC00019028A8180931A02898180931B028CEB1C
:100ED00090E025EAFC0120830F900F90CF91DF91E5
:100EE0000895DF93CF930F92CDB7DEB789830000CB
:100EF0000E94D0028823E1F782E090E090934E03B5
:100F000080934D0384E08093180288E08093190257
:100F1000898180931A028CEB90E025EAFC01208302
:100F20000F90CF91DF910895DF93CF930F92CDB7BC
:100F3000DEB7898300000E94D0028823E1F782E0B7
:100F400090E090934E0380934D0384E080931802C9
:100F50008BE280931902898180931A028CEB90E0D6
:100F600025EAFC01208300000E94D0028823E1F7DB
:100F700082E090E090934E0380934D0385E0809350
:100F800018028CEB90E025EAFC01208300000E940F
:100F9000D0028823E1F7809119020F90CF91DF9161
:100FA0000895DF93CF93CDB7DEB700000E94D00243
:100FB0008823E1F781E090E090934E0380934D0306
:100FC00084E08093180287E0809319028CEB90E014
:100FD00025EAFC01208300000E94D0028823E1F76B
:100FE00082E090E090934E0380934D0385E08093E0
:100FF00018028CEB90E025EAFC01208300000E949F
:10100000D0028823E1F780911902CF91DF910895F2
:10101000DF93CF930F92CDB7DEB7898300000E9494
:10102000D0028823E1F782E090E090934E03809312
:101030004D0384E0809318028EE280931902898127
:1010400080931A028CEB90E025EAFC0120830000DB
:101050000E94D0028823E1F782E090E090934E0353
:1010600080934D0385E0809318028CEB90E025EA95
:10107000FC01208300000E94D0028823E1F78091C8
:1010800019020F90CF91DF910895DF93CF930F92C4
:10109000CDB7DEB7898300000E94D0028823E1F734
:1010A00082E090E090934E0380934D0384E0809320
:1010B00018028FE280931902898180931A028CEBC7
:1010C00090E025EAFC01208300000E94D0028823E2
:1010D000E1F782E090E090934E0380934D0385E02A
:1010E000809318028CEB90E025EAFC01208300003D
:1010F0000E94D0028823E1F7809119020F90CF91CE
:10110000DF910895DF93CF9300D000D0CDB7DEB745
:1011100089836A834B832C8300000E94D00288233A
:10112000E1F785E090E090934E0380934D0384E0D7
:101130008093180281E380931902898180931A02B7
:101140008A8180931B028B8180931C028C81809307
:101150001D028CEB90E025EAFC0120830F900F909C
:101160000F900F90CF91DF910895DF93CF9300D030
:101170000F92CDB7DEB789836A834B8300000E944C
:10118000D0028823E1F784E090E090934E038093AF
:101190004D0384E08093180282E3809319028981D1
:1011A00080931A028A8180931B028B8180931C0298
:1011B0008CEB90E025EAFC0120830F900F900F90BC
:1011C000CF91DF910895DF93CF930F92CDB7DEB724
:1011D000898300000E94D0028823E1F782E090E03A
:1011E00090934E0380934D0384E08093180285E032
:1011F00080931902898180931A028CEB90E025EA92
:10120000FC0120830F90CF91DF910895DF93CF935E
:101210000F92CDB7DEB7898300000E94D0028823E9
:10122000E1F782E090E090934E0380934D0384E0D9
:101230008093180286E080931902898180931A02B4
:101240008CEB90E025EAFC0120830F90CF91DF9199
:101250000895DF93CF930F92CDB7DEB78983000057
:101260000E94D0028823E1F782E090E090934E0341
:1012700080934D0384E08093180283E380931902E6
:10128000898180931A028CEB90E025EAFC0120838F
:101290000F90CF91DF9108951F920F920FB60F928A
:1012A00011242F933F934F935F938F939F93EF93CB
:1012B000FF93DF93CF930F92CDB7DEB780915103A9
:1012C000282F30E081E090E002C0880F991F2A9516
:1012D000E2F789838BE290E02BE230E0F901308184
:1012E000209100012323FC0120839091000189813A
:1012F0008923882351F48BE290E02BE230E0F9015E
:1013000030812981232BFC01208387E490E026E4AF
:1013100030E0F901508140915103242F30E02C5BE3
:101320003C4FF9012081250FFC012083842F8F5F22
:101330008093510380915103893011F4109251032D
:101340000F90CF91DF91FF91EF919F918F915F91DE
:101350004F913F912F910F900FBE0F901F901895B6
:10136000DF93CF9300D0CDB7DEB789836A838981BD
:101370008E5F89838A81813039F58981282F30E019
:1013800081E090E002C0880F991F2A95E2F7982F1C
:101390009095809100018923809300018AE290E07A
:1013A0002AE230E0F9012081622F2981422F50E0AA
:1013B00021E030E0042E02C0220F331F0A94E2F72E
:1013C000262BFC01208329C08A81882331F589815D
:1013D000282F30E081E090E002C0880F991F2A9505
:1013E000E2F7982F80910001892B809300018AE217
:1013F00090E02AE230E0F9012081622F2981422F1A
:1014000050E021E030E0042E02C0220F331F0A9486
:10141000E2F720952623FC0120830F900F90CF91B7
:10142000DF910895DF93CF9300D0CDB7DEB78A83E5
:1014300019820BC08981882F90E08C5B9C4F25E737
:10144000FC01208389818F5F89838981883090F3B3
:101450008FEF80934C038A818130E1F48EE690E037
:101460002EE630E0F90120812260FC01208385E432
:1014700090E025E430E0F9012081287FFC01208301
:1014800085E490E025E430E0F90120812460FC014E
:1014900020831DC08A818823D1F48EE690E02EE659
:1014A00030E0F90120812D7FFC01208385E490E06C
:1014B00025E430E0F9012081287FFC01208385E4C8
:1014C00090E025E430E0F9012081FC01208378944C
:1014D0000F900F90CF91DF9108950F931F93DF939B
:1014E000CF9300D00F92CDB7DEB789837B836A8319
:1014F00089818E5F89838981082F10E08A819B8191
:10150000CC01A0E0B0E0BC01CD010E944611DC019D
:10151000CB01BC01CD0120E030E44CE952E40E9453
:10152000BC0EDC01CB01BC01CD0120E030E04AE77C
:1015300054E40E94B60FDC01CB01BC01CD0120E0D8
:1015400030E44CE952E40E945E0EDC01CB01BC01A8
:10155000CD010E94E80CDC01CB01282FC8018C5B77
:101560009C4FFC0120830F900F900F90CF91DF9143
:101570001F910F9108950F931F93DF93CF9300D086
:10158000CDB7DEB789836A8389818E5F89838A813B
:10159000853614F084E68A838981082F10E08A81D9
:1015A000992787FD9095A92FB92FBC01CD010E94E5
:1015B0009410DC01CB01BC01CD0120E030E04AEF0A
:1015C00051E40E94BC0EDC01CB01BC01CD0120E046
:1015D00030E040E050E40E94B60FDC01CB01BC01DA
:1015E000CD0120E030E048EC52E40E94B60FDC016F
:1015F000CB01BC01CD0120E030E64AEE52E40E946E
:101600005E0EDC01CB01BC01CD010E94E80CDC01C7
:10161000CB01282FC8018C5B9C4FFC0120830F90CD
:101620000F90CF91DF911F910F9108950F931F930A
:10163000DF93CF9300D0CDB7DEB789836A838981EA
:101640008E5F89838A81853614F084E68A83898156
:10165000082F10E08A81992787FD9095A92FB92F2F
:10166000BC01CD010E949410DC01CB01BC01CD0175
:1016700020E030E44CE952E40E94BC0EDC01CB01D6
:10168000BC01CD0120E030E040E050E40E94B60F04
:10169000DC01CB01BC01CD0120E030E048EC52E49C
:1016A0000E94B60FDC01CB01BC01CD0120E030E689
:1016B0004AEE52E40E945E0EDC01CB01BC01CD017A
:1016C0000E94E80CDC01CB01282FC8018C5B9C4FE9
:1016D000FC0120830F900F90CF91DF911F910F910C
:1016E0000895DF93CF9300D0CDB7DEB789836A83A7
:1016F0008981882361F480E06A810E94BB0A8A8123
:101700008195982F81E0692F0E94BB0A38C089819A
:10171000813061F48A818195982F80E0692F0E9441
:10172000BB0A81E06A810E94BB0A29C0898182309C
:1017300049F480E06A810E94BB0A81E06A810E94CC
:10174000BB0A1DC08981833079F48A818195982FE5
:1017500080E0692F0E94BB0A8A818195982F81E0E1
:10176000692F0E94BB0A0BC08981843041F480E05C
:1017700060E00E94BB0A81E060E00E94BB0A0F901B
:101780000F90CF91DF910895DF93CF9300D0CDB725
:10179000DEB789836A838981882361F480E06A8166
:1017A0000E94160B8A818195982F81E0692F0E94F3
:1017B000160B38C08981813061F48A818195982F18
:1017C00080E0692F0E94160B81E06A810E94160B4F
:1017D00029C08981833049F480E06A810E94160B18
:1017E00081E06A810E94160B1DC08981823079F4E4
:1017F0008A818195982F80E0692F0E94160B8A813B
:101800008195982F81E0692F0E94160B0BC089816A
:10181000843041F480E060E00E94160B81E060E0DB
:101820000E94160B0F900F90CF91DF910895DF93D8
:10183000CF93CDB7DEB781E00E94120A80E061E06D
:101840000E94B00981E061E00E94B0097894CF91D4
:10185000DF910895DF93CF930F92CDB7DEB78983E1
:101860008981813019F40E94170C03C080E00E9426
:10187000120A0F90CF91DF9108951F920F920FB629
:101880000F921124DF93CF93CDB7DEB7CF91DF91C5
:101890000F900FBE0F901F901895DF93CF9300D03D
:1018A00000D00F92CDB7DEB781E0898381E00E943E
:1018B000BF0281E00E94290984E290E02FE0FC0150
:1018C000208385E290E0FC01108201C0000080E0EE
:1018D00060E00E949E009B838A832A813B81C9012C
:1018E000880F991F880F991F880F991F820F931FC8
:1018F00025E030E0B9010E94A8139B01C901809640
:101900009B838A8321E031E080ECB9010E94D604F8
:101910002A813B8184ECB90142E00E9458058C8108
:101920009D818832910554F085E290E025E230E017
:10193000F90120812260FC0120830EC08C819D81F1
:10194000833291054CF485E290E025E230E0F90124
:1019500020812D7FFC01208384E00E949407813048
:1019600051F485E290E025E230E0F9012081216028
:10197000FC0120830EC081E00E949407813049F46D
:1019800085E290E025E230E0F90120812E7FFC0124
:10199000208383E00E949407813051F485E290E037
:1019A00025E230E0F90120812260FC0120838FCF05
:1019B00082E00E949407813009F088CF85E290E0B0
:1019C00025E230E0F90120812D7FFC0120837FCFCB
:1019D000EF92FF920F931F937B018C0120E030E088
:1019E00040E05FE40E94641087FD11C0C801B701A8
:1019F00020E030E040E05FE40E948B0E0E94F41093
:101A00009B01AC01205030404040504806C0C80106
:101A1000B7010E94F4109B01AC01B901CA011F91EA
:101A20000F91FF90EF900895A0E0B0E0EAE1FDE0B3
:101A30000C94F513FC01EA018081823008F438C16E
:101A4000DB019C91923008F430C1843059F4943019
:101A500009F02EC1918111968C911197981709F078
:101A600021C126C1943009F420C19230B1F48230F2
:101A700009F01EC1CA01AF0128E0DA010D90AD01E5
:101A8000DC010D92CD012150C1F7DB0111968C9143
:101A900011979181892389830AC1823009F405C194
:101AA000C280D380DB0112966D907C9013972481C5
:101AB0003581468157811496ED90FD900D911C91D2
:101AC0001797C601861997095C0197FF04C0AA24DD
:101AD000BB24A81AB90AB0E2AB16B1040CF061C07D
:101AE000181619066CF5370148010A2C04C09694A3
:101AF0008794779467940A94D2F781E090E0A0E00D
:101B0000B0E00A2C04C0880F991FAA1FBB1F0A94BB
:101B1000D2F70197A109B1098E219F21A023B123FA
:101B2000EE24FF248701E3940097A105B10519F481
:101B3000EE24FF248701E628F728082919293CC04C
:101B40000097D1F1CA0CDB1C39014A010A2C04C0F0
:101B500096948794779467940A94D2F781E090E002
:101B6000A0E0B0E00A2C04C0880F991FAA1FBB1F79
:101B70000A94D2F70197A109B10982239323A423E0
:101B8000B52321E030E040E050E00097A105B10529
:101B900019F420E030E0A9012629372948295929DC
:101BA0000BC06C147D0424F4EE24FF24870104C0D0
:101BB000630120E030E0A9018181FB019181891757
:101BC00009F445C0882349F0D801C701821B930B53
:101BD000A40BB50B9C01AD0104C02E193F09400BAD
:101BE000510B57FD04C01982DB82CA820BC081E011
:101BF0008983DB82CA8250954095309521953F4F6D
:101C00004F4F5F4F2C833D834E835F830DC0880F02
:101C1000991FAA1FBB1F8C839D83AE83BF838A81BC
:101C20009B8101979B838A838C819D81AE81BF813B
:101C30009C01AD0121503040404050402F3FEFEF1C
:101C40003E07EFEF4E07EFE35E0708F30BC0898313
:101C5000DB82CA822E0D3F1D401F511F2C833D8306
:101C60004E835F8383E088832C813D814E815F8139
:101C700057FF1DC0DA01C90181709070A070B0706B
:101C80005695479537952795822B932BA42BB52BEB
:101C90008C839D83AE83BF838A819B8101969B83C6
:101CA0008A8305C0EEE0F1E003C0FB0101C0FE0144
:101CB000CF01CDB7DEB7EEE00C941114A0E2B0E096
:101CC000E4E6FEE00C94FD1369837A838B839C83A6
:101CD0002D833E834F83588789E0E82EF12CEC0E4C
:101CE000FD1ECE010196B7010E94E6128E010F5E25
:101CF0001F4FCE010596B8010E94E612C701B80138
:101D0000AE01475E5F4F0E94140D0E941812A0960C
:101D1000E6E00C941914A0E2B0E0E1E9FEE00C94D6
:101D2000FD1369837A838B839C832D833E834F834A
:101D300058878E01075F1F4FCE010196B8010E94A0
:101D4000E61291E1E92EF12CEC0EFD1ECE01059676
:101D5000B7010E94E6128A8991E089278A8BC8011F
:101D6000B701AE01475E5F4F0E94140D0E9418122A
:101D7000A096E6E00C941914A0E2B0E0E2ECFEE0DC
:101D80000C94F11369837A838B839C832D833E8328
:101D90004F835887CE010196BE01675F7F4F0E9437
:101DA000E612CE010596BE016F5E7F4F0E94E612DD
:101DB0009985923078F089898230C0F0943019F496
:101DC000823041F4CBC0843019F4923079F4C6C02B
:101DD000923051F481E02A859A89291709F480E02C
:101DE0008A87CE010996BCC0823051F481E02A85F1
:101DF0009A89291709F480E08A8BCE014196B0C0F8
:101E00006D847E848F849888ED88FE880F89188D74
:101E1000E0E2F0E080E090E0DC01AA24BB24650170
:101E200020E030E0A901B3016170707061157105A7
:101E3000D1F02E0D3F1D401F511F15012601280E08
:101E4000391E4A1E5B1E81E090E0A0E0B0E02E1536
:101E50003F054007510718F080E090E0DC01820D5B
:101E6000931DA41DB51DAA0CBB1CCC1CDD1C17FFAB
:101E700009C061E0262E312C412C512CA228B32818
:101E8000C428D528319749F0EE0CFF1C001F111F04
:101E90009694879477946794C6CF6B897C89EB85F9
:101EA000FC856E0F7F1F6E5F7F4F7C8F6B8F61E0B5
:101EB000EA857A89E71709F460E06A8F6B8D7C8D7B
:101EC00010C0FC01E170F070309729F056954795ED
:101ED000379527955068B695A795979587956F5F25
:101EE0007F4FB7FDEECF0CC0880F991FAA1FBB1FF5
:101EF00057FD8160220F331F441F551F61507040F2
:101F00008030E0E09E07E0E0AE07E0E4BE0760F36B
:101F10006B8F7C8F6FE7E62EF12C012D112DE822BF
:101F2000F9220A231B2360E4E616F10401051105DA
:101F300061F487FD0AC0211531054105510529F0DD
:101F4000805C9F4FAF4FBF4F80788D8F9E8FAF8F3C
:101F5000B8A383E0898FCE01499602C08EE091E05C
:101F60000E941812A096E2E10C940D14A8E1B0E0D2
:101F7000ECEBFFE00C94F91369837A838B839C83E9
:101F80002D833E834F8358878E01075F1F4FCE01FD
:101F90000196B8010E94E61281E1E82EF12CEC0EC8
:101FA000FD1ECE010596B7010E94E612998592307A
:101FB00008F483C08989823008F47BC02A853A8975
:101FC00023272A87943011F0923021F4981709F0D2
:101FD0006CC071C0843039F41D861E861F86188A35
:101FE0001C861B866AC0823019F484E0898765C02C
:101FF0008B859C852B893C89821B930B9C878B87C7
:102000002D853E854F855889ED88FE880F89188D6E
:102010002E153F054007510738F4220F331F441F88
:10202000551F01979C878B876FE170E0A12CB12C25
:10203000C12CA0E4DA2E80E090E0DC012E153F05F3
:102040004007510740F08A299B29AC29BD292E1948
:102050003F09400B510BD694C794B794A794220F15
:10206000331F441F551F6150704041F76FE7E62E44
:10207000F12C012D112DE822F9220A231B2360E403
:10208000E616F1040105110561F487FD0AC021156A
:1020900031054105510529F0805C9F4FAF4FBF4F7F
:1020A00080788D879E87AF87B88B8E01075F1F4F23
:1020B00004C0870102C00EE011E0C8010E9418129E
:1020C0006896EAE00C941514A8E1B0E0EAE6F0E1C5
:1020D0000C94FD1369837A838B839C832D833E83C9
:1020E0004F8358878E01075F1F4FCE010196B801BD
:1020F0000E94E61281E1E82EF12CEC0EFD1ECE01CD
:102100000596B7010E94E6128985823040F08989E0
:10211000823028F0C801B7010E944F1301C08FEF31
:102120006896E6E00C941914A8E0B0E0EAE9F0E162
:102130000C94FD137B018C0183E08983D801C701D6
:102140008827B7FD83959927AA27BB27282F8A833D
:10215000E114F1040105110519F482E0898337C007
:102160008EE190E09C838B83222389F080E0E81647
:1021700080E0F80680E0080780E8180769F110950C
:102180000095F094E094E11CF11C011D111DED82FD
:10219000FE820F831887C801B7010E94BE119C01FF
:1021A000215030401216130694F4022E04C0EE0C97
:1021B000FF1C001F111F0A94D2F7ED82FE820F83CD
:1021C00018878EE190E0821B930B9C838B83CE015A
:1021D00001960E94181204C060E070E080E09FEC5D
:1021E0002896E6E00C941914ACE0B0E0EAEFF0E1D8
:1021F0000C94011469837A838B839C83CE010196AE
:10220000BE016B5F7F4F0E94E6128D81823081F1AB
:10221000823070F1843021F48E81882369F10AC004
:102220002F81388537FD24C06E812F3131053CF078
:10223000662311F120E030E040E050E821C08EE15B
:1022400090E0821B930B29853A854B855C8504C001
:1022500056954795379527958A95D2F7662381F04D
:1022600050954095309521953F4F4F4F5F4F08C097
:1022700020E030E0A90104C02FEF3FEF4FEF5FE710
:10228000B901CA012C96E2E00C941D14A8E0B0E05C
:10229000ECE4F1E10C94FB137B018C011A826115D3
:1022A00071058105910519F482E089835FC083E09F
:1022B00089838EE1C82ED12CDC82CB82ED82FE8216
:1022C0000F831887C801B7010E94BE11FC01319726
:1022D000F7FF3AC0AA27BB27AE1BBF0B21E030E0B7
:1022E00040E050E00A2E04C0220F331F441F551F48
:1022F0000A94D2F721503040404050402E213F21D7
:102300004023512361E070E080E090E02115310529
:102310004105510519F460E070E0CB0104C0169549
:102320000795F794E794AA95D2F7E62AF72A082B9F
:10233000192BED82FE820F8318878EE190E08E1BB1
:102340009F0B9C838B8312C0309781F00E2E04C0AC
:10235000EE0CFF1C001F111F0A94D2F7ED82FE82C3
:102360000F831887CE1ADF0ADC82CB82CE0101965A
:102370000E9418122896E8E00C941714AF92BF92AE
:10238000CF92DF92EF92FF920F931F937B018C010C
:1023900080E0E81680E0F80681E0080780E0180792
:1023A00058F4EFEFEE16F1040105110509F090F471
:1023B00080E090E0DC0117C0F0E0EF16F0E0FF06EF
:1023C000F0E00F07F1E01F0750F480E190E0A0E09B
:1023D000B0E009C088E090E0A0E0B0E004C088E18F
:1023E00090E0A0E0B0E020E230E040E050E0281BC8
:1023F000390B4A0B5B0B5701680104C0D694C79494
:10240000B794A7948A95D2F7D601C5018A5E9E4FEC
:10241000FC018081281B310941095109C9011F9123
:102420000F91FF90EF90DF90CF90BF90AF90089505
:10243000EF92FF920F931F93CF93DF93FC012481C0
:1024400035814681578161818081823020F44061ED
:10245000EFEFF0E0A3C0843009F49BC0823009F4B0
:1024600092C0211531054105510509F48FC0028044
:10247000F381E02D8FEFE238F8070CF05AC0C2E884
:10248000DFEFCE1BDF0BCA31D1056CF579018A0174
:102490000C2E04C016950795F794E7940A94D2F78A
:1024A00081E090E0A0E0B0E00C2E04C0880F991FFE
:1024B000AA1FBB1F0A94D2F70197A109B109822371
:1024C0009323A423B52321E030E040E050E00097BF
:1024D000A105B10519F420E030E0A9012E293F291A
:1024E000402B512B03C020E030E0A901DA01C901E3
:1024F0008F779070A070B07080349105A105B10500
:1025000039F427FF09C0205C3F4F4F4F5F4F04C095
:10251000215C3F4F4F4F5F4FE1E0F0E0203080E023
:10252000380780E0480780E4580728F5E0E0F0E04D
:1025300022C0E038F1056CF5E158FF4FDA01C9011E
:102540008F779070A070B07080349105A105B105AF
:1025500039F427FF09C0205C3F4F4F4F5F4F04C045
:10256000215C3F4F4F4F5F4F57FF05C05695479532
:1025700037952795319687E0569547953795279556
:102580008A95D1F70BC0E0E0F0E005C0E0E0F0E0B4
:1025900005C0EFEFF0E020E030E0A9018E2F879535
:1025A00088278795942F9F77679566276795E69587
:1025B000E22EA92FA82BFE2FF62B622F732F8A2F26
:1025C0009F2FCDB7DEB7E6E00C941914DC01FB01B8
:1025D0002C9111963C91119712968C911297482F3D
:1025E0004F7750E0982F991F9927991F13966C9158
:1025F0001397862F880F892B90E0661F6627661F2A
:102600006183009739F5211531054105510511F414
:1026100082E029C082E89FEF9383828367E0220FE4
:10262000331F441F551F6A95D1F783E0808309C08B
:10263000220F331F441F551F82819381019793837B
:102640008283203080E0380780E0480780E4580724
:1026500078F320C08F3F910579F4211531054105AC
:10266000510519F484E08083089544FF03C081E09C
:10267000808310C010820EC08F5790409383828356
:1026800083E0808387E0220F331F441F551F8A9504
:10269000D1F7506424833583468357830895FC0122
:1026A000DB019081923008F449C08C91823008F4AB
:1026B00045C0943051F461818430B1F511962C916C
:1026C000119730E0261B310941C0843021F092304F
:1026D00041F48230B1F111968C9111978823A1F1C8
:1026E0002DC06181823001F111968C91119768178C
:1026F000D9F42281338112968D919C911397821780
:10270000930794F028173907BCF02481358146815E
:10271000578114968D919D910D90BC91A02D82179B
:102720009307A407B50718F4662341F00DC02817D6
:1027300039074A075B0728F4662331F021E030E0CF
:1027400005C020E030E002C02FEF3FEFC90108953F
:1027500097FB092E07260AD077FD04D02ED006D08D
:1027600000201AF4709561957F4F0895F6F79095C3
:1027700081959F4F0895A1E21A2EAA1BBB1BFD0154
:102780000DC0AA1FBB1FEE1FFF1FA217B307E40750
:10279000F50720F0A21BB30BE40BF50B661F771FA8
:1027A000881F991F1A9469F7609570958095909588
:1027B0009B01AC01BD01CF010895AA1BBB1B51E1D8
:1027C00007C0AA1FBB1FA617B70710F0A61BB70BA1
:1027D000881F991F5A95A9F780959095BC01CD0146
:1027E00008952F923F924F925F926F927F928F92B5
:1027F0009F92AF92BF92CF92DF92EF92FF920F9390
:102800001F93CF93DF93CDB7DEB7CA1BDB0B0FB699
:10281000F894DEBF0FBECDBF09942A883988488856
:102820005F846E847D848C849B84AA84B984C884EC
:10283000DF80EE80FD800C811B81AA81B981CE0FE3
:10284000D11D0FB6F894DEBF0FBECDBFED010895C8
:10285000FC0101900020E9F7809590958E0F9F1F55
:062860000895F894FFCF7B
:10286600FF465A3A20000100040010004000000014
:102876000000000000000001020203030303040439
:1028860004040404040405050505050505050505F8
:1028960005050505050506060606060606060606D8
:1028A60006060606060606060606060606060606C2
:1028B60006060606060607070707070707070707A8
:1028C6000707070707070707070707070707070792
:1028D6000707070707070707070707070707070782
:1028E6000707070707070707070707070707070772
:1028F6000707070707070808080808080808080858
:102906000808080808080808080808080808080841
:102916000808080808080808080808080808080831
:102926000808080808080808080808080808080821
:102936000808080808080808080808080808080811
:102946000808080808080808080808080808080801
:1029560008080808080808080808080808080808F1
:1029660008080808080808080808080808080808E1
:062976000808080808082B
:00000001FF
