:100000000C9434000C9451000C9451000C94510049
:100010000C9451000C9451000C9451000C9451001C
:100020000C9451000C9451000C9451000C9451000C
:100030000C9451000C9451000C946F060C945100D8
:100040000C9451000C9451000C9451000C945100EC
:100050000C9451000C9451000C9451000C945100DC
:100060000C94DA010C94510011241FBECFEFD4E0A0
:10007000DEBFCDBF11E0A0E0B1E0E4EBF2E102C0F1
:1000800005900D92A832B107D9F712E0A8E2B1E0CD
:1000900001C01D92A536B107E1F70E944B070C94F1
:1000A00058090C940000E8E8F3E13197F1F7019763
:1000B000D1F70895009799F010C0000000000000EB
:1000C0000000000000000000000000000000000030
:1000D00000000000000000000000019771F7089583
:1000E000009711F00C94530008959C01662319F0B9
:1000F000623031F514C097FF0CC03195219531095C
:1001000094E0369527959A95E1F731952195310937
:1001100017C084E0369527958A95E1F711C097FFBF
:1001200003C0319521953109A9014F70552781E709
:1001300092E0489F9001499F300D589F300D112447
:10014000C901089598B141E050E0082E02C0440F63
:10015000551F0A94E2F7242F2095922398B997B15E
:10016000942B97B9E3ECF9E03197F1F700C0000068
:1001700097B1922397B9E6E7F1E03197F1F700C024
:10018000000026B130E02423352302C035952795A1
:100190008A95E2F7232B11F480E001C08FEFE3ECA6
:1001A000F9E03197F1F700C00000089521E030E058
:1001B00001C0220F8A95EAF7922F909588E038B116
:1001C000392338B937B1322B37B960FD0AC0EBE2B9
:1001D000F1E03197F1F700C0000037B1392337B9AA
:1001E0000DC0F1E2FA95F1F7000037B1392337B9C4
:1001F000EBE2F1E03197F1F700C000006695815025
:10020000F1F6089521E030E0082E02C0220F331FDE
:100210000A94E2F7722F7095E22F68E0969548B144
:10022000472348B947B14E2B47B941E24A95F1F708
:10023000000047B1472347B9A1E2AA95F1F70000B2
:1002400046B150E042235323082E02C055954795EE
:100250000A94E2F7452B11F0906801C09F77ABE25A
:10026000B1E01197F1F700C000006150B9F6892F95
:1002700008951F93CF93DF93C82F162F0E94A200DB
:100280006CEC8C2F0E94D60064E48C2F0E94D60068
:100290008C2F0E94A2006CEC8C2F0E94D6006EEB7B
:1002A0008C2F0E94D6008C2F0E940201D82F8C2FF9
:1002B0000E940201382F20E0612FC9018D0F911D8E
:1002C000DF91CF911F910C947500ECEBF0E08081F1
:1002D000908190718170892B0895AF92BF92CF92D7
:1002E000DF92EF92FF920F931F93CF93DF93CDB7DF
:1002F000DEB728970FB6F894DEBF0FBECDBF9B01C7
:10030000AC0188E0EEE0F1E0DE01119601900D9283
:100310008A95E1F760E07DE281E391E00E941609B1
:1003200069017A0180E1C81AD108E108F108AA241C
:10033000A394B12CAC0EBD1E00E010E0F50121919C
:1003400031915F01220F331F40E050E0C701B60139
:100350000E9416090F5F1F4FC9010C97843F91053A
:1003600068F72093B8008091B9008C7F8093B90022
:100370008091B9000150082B0093B90084E080936C
:10038000BC0028960FB6F894DEBF0FBECDBFDF913C
:10039000CF911F910F91FF90EF90DF90CF90BF9082
:1003A000AF90089568E97BEA82E090E00E946D01D9
:1003B000789408951F920F920FB60F9211242F93E5
:1003C0003F938F939F93EF93FF938091B900887F22
:1003D0008832C9F170F4803109F45BC020F48830B0
:1003E00009F064C013C08831E1F0803209F05EC0CA
:1003F00028C0883431F120F4803409F057C047C058
:10040000803579F1883509F051C045C010922A0134
:100410001092290180912B018093BB0081E090E034
:100420000BC08091290190912A01FC01E55DFE4FEE
:1004300020812093BB00019690932A01809329018B
:1004400028C085EA34C08091290190912A01209129
:100450005F02309160022F5F3F4F8217930720F5B4
:10046000E4CF8091290190912A012091BB00FC01E9
:10047000E55DFE4F2083019690932A018093290128
:1004800020915F02309160028217930710F485EC8F
:100490000EC085E80CC0E0912901F0912A018091FD
:1004A000BB00E55DFE4F808384E901C084E080935A
:1004B000BC00FF91EF919F918F913F912F910F90F1
:1004C0000FBE0F901F9018950E9465018111FCCFFF
:1004D00081E090E09093600280935F0284E08093DB
:1004E0002B0182E080932C0185EA8093BC000E945E
:1004F00065018111FCCF82E090E0909360028093CF
:100500005F0285E080932B0185EA8093BC000E9406
:1005100065018111FCCF30912C0120912D01932F89
:1005200080E0AC01420F511DCA0108951F93CF9383
:10053000DF931F92CDB7DEB7182F69830E94650144
:1005400069818111FACF23E030E03093600220937B
:100550005F0284E080932B0182E280932C01109350
:100560002D0160932E0185EA8093BC000F90DF91EE
:10057000CF911F910895EF92FF921F93CF93DF9336
:1005800000D0CDB7DEB7182FDB010D900020E9F7C2
:100590007D0181E0E81AF108E61AF70A69837A8397
:1005A0000E94650169817A818111F8CFC70199277D
:1005B00002969093600280935F0284E080932B0107
:1005C00081E280932C0110932D01FB0183E0861BB7
:1005D00004C0B0E0A55DBE4F9C93A82FAE0F9191D3
:1005E0009111F7CF85EA8093BC000F900F90DF91B7
:1005F000CF911F91FF90EF9008951F93CF93DF93BA
:1006000000D01F92CDB7DEB7182F49836A837B8352
:100610000E94650149816A817B818111F6CF25E0C5
:1006200030E03093600220935F0284E080932B01DE
:1006300083E080932C0110932D0170932E01609321
:100640002F014093300185EA8093BC000F900F90FA
:100650000F90DF91CF911F9108951F93CF93DF9358
:1006600000D01F92CDB7DEB7182F49836A837B83F2
:100670000E94650149816A817B818111F6CF25E065
:1006800030E03093600220935F0284E080932B017E
:1006900086E280932C0110932D0170932E016093BC
:1006A0002F014093300185EA8093BC000F900F909A
:1006B0000F90DF91CF911F9108951F93CF93DF93F8
:1006C00000D01F92CDB7DEB7182F49836A837B8392
:1006D0000E94650149816A817B818111F6CF25E005
:1006E00030E03093600220935F0284E080932B011E
:1006F00088E280932C0110932D0170932E0160935A
:100700002F014093300185EA8093BC000F900F9039
:100710000F90DF91CF911F9108951F93CF93DF9397
:1007200000D01F92CDB7DEB7182F49836A837B8331
:100730000E94650149816A817B818111F6CF25E0A4
:1007400030E03093600220935F0284E080932B01BD
:1007500087E280932C0110932D0170932E016093FA
:100760002F014093300185EA8093BC000F900F90D9
:100770000F90DF91CF911F9108951F93CF93DF9337
:100780001F92CDB7DEB7182F69830E94650169817A
:100790008111FACF22E130E03093600220935F02B2
:1007A00084E080932B0189E280932C0110932D012A
:1007B00080E090E0262F30E04FEF05C0FC01E25DC5
:1007C000FE4F4083019682179307C4F380E090E0C8
:1007D00070E0AB014D5F5F4FA0E207C0FA01E80F88
:1007E000F91FE55DFE4FA08301969C01260F371F80
:1007F000203131059CF385EA8093BC000F90DF9196
:10080000CF911F9108950E9465018111FCCF81E075
:1008100090E09093600280935F0284E080932B01CC
:1008200085E280932C0185EA8093BC0008950E94A4
:1008300065018111FCCF81E090E09093600280938C
:100840005F0284E080932B018DE280932C0185EA86
:100850008093BC000E9465018111FCCF82E090E092
:100860009093600280935F0285E080932B0185EA7C
:100870008093BC000E9465018111FCCF80912C0106
:1008800008951F93CF93DF931F92CDB7DEB7182F34
:1008900099830E94650199818111FACF23E030E0AC
:1008A0003093600220935F0284E080932B018CE2FE
:1008B00080932C0190932D0110932E0185EA809353
:1008C000BC000F90DF91CF911F910895EF92FF929E
:1008D0000F931F93CF93DF9300D0CDB7DEB7182FC0
:1008E00069839A830E94650169819A818111F8CF99
:1008F000262F30E0A901440F551F440F551F4E5FAE
:100900005F4F5093600240935F0244E040932B019D
:1009100040932C0160932D01A901440F551FE12F35
:10092000F92F83E090E020E030E011C07F01618189
:100930008C01055D1E4FD8016C933296D7016C91E6
:10094000DC01A45DBE4F6C9302962F5F3F4F2417CE
:10095000350764F385EA8093BC000F900F90DF9118
:10096000CF911F910F91FF90EF9008951F93CF9318
:10097000DF931F92CDB7DEB7182F69830E94650100
:1009800069818111FACF23E030E030936002209337
:100990005F0284E080932B0180E380932C016093BD
:1009A0002D0110932E0185EA8093BC000F90DF91FA
:1009B000CF911F910895CF93C82F0E946501811197
:1009C000FCCF22E030E03093600220935F0284E0AD
:1009D00080932B0188E080932C01C0932D0185EA40
:1009E0008093BC00CF910895CF93C82F0E946501DA
:1009F0008111FCCF22E030E03093600220935F024F
:100A000084E080932B018BE280932C01C0932D0115
:100A100085EA8093BC000E9465018111FCCF82E0D1
:100A200090E09093600280935F0285E080932B01B9
:100A300085EA8093BC000E9465018111FCCF809102
:100A40002C01CF9108950E9465018111FCCF81E0B6
:100A500090E09093600280935F0284E080932B018A
:100A600087E080932C0185EA8093BC000E94650199
:100A70008111FCCF82E090E09093600280935F024E
:100A800085E080932B0185EA8093BC000E9465017C
:100A90008111FCCF80912C010895CF93C82F0E9423
:100AA00065018111FCCF22E030E030936002209399
:100AB0005F0284E080932B018EE280932C01C0932F
:100AC0002D0185EA8093BC000E9465018111FCCF55
:100AD00082E090E09093600280935F0285E08093D3
:100AE0002B0185EA8093BC000E9465018111FCCF37
:100AF00080912C01CF910895CF93C82F0E9465015A
:100B00008111FCCF22E030E03093600220935F023D
:100B100084E080932B018FE280932C01C0932D0100
:100B200085EA8093BC000E9465018111FCCF82E0C0
:100B300090E09093600280935F0285E080932B01A8
:100B400085EA8093BC000E9465018111FCCF8091F1
:100B50002C01CF9108951F93CF93DF9300D01F9264
:100B6000CDB7DEB7182F2B834A8369830E946501B6
:100B70002B814A8169818111F6CFE5E0F0E0F093A5
:100B80006002E0935F0284E080932B0181E3809315
:100B90002C0110932D0160932E0140932F0120937F
:100BA000300185EA8093BC000F900F900F90DF9189
:100BB000CF911F9108951F93CF93DF9300D0CDB7AE
:100BC000DEB7182F4A8369830E9465014A816981D3
:100BD0008111F8CF24E030E03093600220935F026F
:100BE00084E080932B0182E380932C0110932D01EC
:100BF00060932E0140932F0185EA8093BC000F90F3
:100C00000F90DF91CF911F910895CF93C82F0E942D
:100C100065018111FCCF22E030E030936002209327
:100C20005F0284E080932B0185E080932C01C093C8
:100C30002D0185EA8093BC00CF910895CF93C82FF2
:100C40000E9465018111FCCF22E030E03093600208
:100C500020935F0284E080932B0186E080932C0137
:100C6000C0932D0185EA8093BC00CF910895CF9366
:100C7000C82F0E9465018111FCCF22E030E0309343
:100C8000600220935F0284E080932B0183E38093D2
:100C90002C01C0932D0185EA8093BC00CF9108956B
:100CA00029E0AC01249FC001259F900D112465E02F
:100CB00070E00E940209605E7F4FCB010895813091
:100CC00011F4299A0895811101C02998089581305D
:100CD00011F4289A0895811101C0289808951F924F
:100CE0000F920FB60F921124CF92DF92EF92FF92E4
:100CF0002F933F934F935F936F937F938F939F9324
:100D0000AF93BF93EF93FF93809161029091620242
:100D1000A0916302B0916402AC01BD014F5F5F4FCF
:100D20006F4F7F4F40936102509362026093630262
:100D300070936402893C9105A105B105E0F0109221
:100D4000610210926202109263021092640280911A
:100D5000570290915802A0915902B0915A020196FF
:100D6000A11DB11D8093570290935802A093590280
:100D7000B0935A025A9A4091610250916202609176
:100D800063027091640280915B0290915C02A09179
:100D90005D02B0915E02481759076A077B0708F0A9
:100DA0005A98C0905702D0905802E0905902F090A3
:100DB0005A022091040130910501409106015091A1
:100DC000070160E477E78BE190E00E94F2086C1580
:100DD0007D058E059F0560F410925702109258020F
:100DE0001092590210925A0280E00E945F06289ADF
:100DF000C0905702D0905802E0905902F0905A02E9
:100E000020910001309101014091020150910301B4
:100E1000A8EBBBE00E94E7086C157D058E059F05D9
:100E200018F480E00E946706FF91EF91BF91AF91A7
:100E30009F918F917F916F915F914F913F912F91F2
:100E4000FF90EF90DF90CF900F900FBE0F901F900C
:100E50001895F894A895813091F463FF02C088E258
:100E600001C088E06770682B88E190E00FB6F894C5
:100E7000A895809360000FBE609360000AC0811146
:100E800008C088E10FB6F89480936000109260006B
:100E90000FBE7894089564E081E00E94290781E004
:100EA0000E94D20181E00E9437068FE084B915B814
:100EB000529A5A9882E084BD93E095BD80936E006B
:100EC0008FE187BD7894B4E6DB2EC4E6EC2EF12CDE
:100ED000A89560E083E00E943901982EA92E082F82
:100EE000192F60E080E00E943901B82EC92E60E021
:100EF00086E00E943901782E892EC82FD92F289993
:100F000015C02B2D3C2D40910C0150910D01CA01B3
:100F100004968217930714F4299A08C04450510983
:100F2000241735071CF480E00E945F0680910A01B7
:100F300090910B01081B190BD09E9001D19E300D92
:100F4000112437FF02C0295F3F4FA3E03595279555
:100F5000AA95E1F7253631052CF42C398FEF3807A7
:100F600024F005C024E630E002C02CE93FEFC901BF
:100F7000880F991F820F931FB7010E940209AB01CE
:100F8000445F5F4F662757FD6095762F40935B0265
:100F900050935C0260935D0270935E0220910801A1
:100FA000309109012C173D071CF480E00E94670670
:100FB00080912801811160C066E171E080E80E94A3
:100FC000BB0242E0692D7A2D82E80E94FD0269E1B0
:100FD00071E086E80E94BB0242E06B2D7C2D88E820
:100FE0000E94FD026CE171E080EC0E94BB0242E0D5
:100FF000672D782D82EC0E94FD0267E171E086EC9E
:101000000E94BB0265B1617041E070E087EC0E9414
:101010002D036FE171E089EC0E94BB0265B166951A
:10102000617041E070E08AEC0E942D0381E00E9433
:10103000F4048130D1F420910401309105014091F4
:1010400006015091070160E477E78BE190E00E9490
:10105000F20860935702709358028093590290935C
:101060005A028CE291E00E94530084E00E94F40452
:10107000813009F02DCF51C0813009F051C066E1B7
:1010800071E080E80E94BB0242E0692D7A2D82E87F
:101090000E94FD0269E171E086E80E94BB0242E025
:1010A0006B2D7C2D88E80E94FD0261E271E080ECEE
:1010B0000E94BB0260910A0170910B0142E082EC38
:1010C0000E94FD0283E00E94F404813069F4809163
:1010D0000A0190910B01019690930B0180930A01F4
:1010E0008CE291E00E94530082E00E94F40481307F
:1010F00069F480910A0190910B01019790930B0183
:1011000080930A018CE291E00E94530084E00E94E7
:10111000F404813009F0DCCE82E08093280152C0D3
:10112000823009F0D5CE66E171E080E80E94BB0212
:1011300042E0692D7A2D82E80E94FD0269E171E0AA
:1011400086E80E94BB0242E06B2D7C2D88E80E945D
:10115000FD0264E271E080EC0E94BB0260910A0132
:1011600070910B0142E082EC0E94FD0283E00E943C
:10117000F404813069F480910C0190910D01019685
:1011800090930D0180930C018CE291E00E9453003A
:1011900082E00E94F404813069F480910C01909106
:1011A0000D01019790930D0180930C018CE291E069
:1011B0000E94530084E00E94F404813009F088CE3C
:1011C000109228018CE291E00E94530081CE0E948F
:1011D0003809A59F900DB49F900DA49F800D911D7F
:1011E00011240895DB018F939F930E94E708BF911C
:1011F000AF91A29F800D911DA39F900DB29F900D66
:101200001124089597FB072E16F4009407D077FD5C
:1012100009D00E94440907FC05D03EF490958195C1
:101220009F4F0895709561957F4F0895A1E21A2E02
:10123000AA1BBB1BFD010DC0AA1FBB1FEE1FFF1F7A
:10124000A217B307E407F50720F0A21BB30BE40BCA
:10125000F50B661F771F881F991F1A9469F7609511
:101260007095809590959B01AC01BD01CF010895CB
:10127000A29FB001B39FC001A39F01D0B29F700D88
:10128000811D1124911D0895AA1BBB1B51E107C0AC
:10129000AA1FBB1FA617B70710F0A61BB70B881F06
:1012A000991F5A95A9F780959095BC01CD01089595
:0412B000F894FFCFE0
:1012B400140000000600000005000200EEFF01001B
:1012C400040010004000464400465A0044460043CF
:0812D400004654005A540000CA
:00000001FF
