:100000000C9434000C9451000C9451000C94510049
:100010000C9451000C9451000C9451000C9451001C
:100020000C9451000C9451000C9451000C9451000C
:100030000C9451000C9451000C9465010C945100E7
:100040000C9451000C9451000C9451000C945100EC
:100050000C9451000C9451000C9451000C945100DC
:100060000C9477040C94510011241FBECFEFD4E000
:10007000DEBFCDBF11E0A0E0B1E0E0E4F9E102C0F5
:1000800005900D92A432B107D9F712E0A4E2B1E0D5
:1000900001C01D92A536B107E1F70E94A8010C949A
:1000A0009E0C0C940000DF93CF93CDB7DEB7000019
:1000B0000E94E2038823E1F781E090E090935702E9
:1000C000809356028CE280932A0110922B018CEBD4
:1000D00090E025EAFC012083CF91DF910895DF9322
:1000E000CF93CDB7DEB700000E94E2038823E1F78B
:1000F00081E090E090935702809356028CE28093C7
:100100002A0181E080932B018CEB90E025EAFC0131
:100110002083CF91DF910895DF93CF930F92CDB7D6
:10012000DEB7898300000E94E2038823E1F782E0C2
:1001300090E090935702809356028CE280932A01BC
:1001400082E080932B01898180932C018CEB90E0DD
:1001500025EAFC0120830F90CF91DF910895DF9372
:10016000CF930F92CDB7DEB7898300000E94E203E0
:100170008823E1F782E090E0909357028093560243
:100180008CE280932A0183E080932B018981809304
:100190002C018CEB90E025EAFC0120830F90CF919D
:1001A000DF910895DF93CF93CDB7DEB700000E94B3
:1001B000E2038823E1F781E090E090935702809377
:1001C00056028EE280932A0110922B018CEB90E074
:1001D00025EAFC012083CF91DF910895DF93CF932F
:1001E000CDB7DEB700000E94E2038823E1F781E08B
:1001F00090E090935702809356028EE280932A01FA
:1002000081E080932B018CEB90E025EAFC012083B8
:10021000CF91DF910895DF93CF930F92CDB7DEB7E3
:10022000898300000E94E2038823E1F782E090E0E6
:1002300090935702809356028EE280932A0182E0C7
:1002400080932B01898180932C018CEB90E025EA2F
:10025000FC0120830F90CF91DF910895DF93CF931E
:100260000F92CDB7DEB7898300000E94E203882396
:10027000E1F782E090E090935702809356028EE27D
:1002800080932A0183E080932B01898180932C0144
:100290008CEB90E025EAFC0120830F90CF91DF9159
:1002A0000895DF93CF93CDB7DEB70E946F000E9411
:1002B000EE0080E091E00E94FA0A8EE690E022E0F3
:1002C000FC012083CF91DF9108951F920F920FB60A
:1002D0000F9211242F933F938F939F93EF93FF934C
:1002E000DF93CF93CDB7DEB780912801909129019C
:1002F00021E08F30910509F020E0019690932901CB
:1003000080932801222371F08BE290E02BE230E011
:10031000F901308124E02327FC0120831092290178
:1003200010922801809126019091270101969093C7
:10033000270180932601CF91DF91FF91EF919F914B
:100340008F913F912F910F900FBE0F901F90189596
:10035000DF93CF9300D0CDB7DEB719828AE290E069
:100360002AE230E0F90120812460FC01208384E44A
:1003700090E022E0FC01208385E490E025E0FC0190
:10038000208387E490E023ECFC012083789481E0D3
:100390000E94D1032AE031E080E8B9010E94E8051B
:1003A0001FC00E947C07898384E690E00E94AD0311
:1003B00089818F3F51F08981282F332727FD309580
:1003C00080E8B90144E00E946A068A81282F30E063
:1003D0008A818F5F8A8380ECB90144E00E946A06BB
:1003E00089818530F1F625E131E080ECB9010E9488
:1003F000E8050E94510101C0000080912601909102
:100400002701F1E08C329F0711F40E945300809184
:1004100026019091270121E0893F920749F486E067
:100420000E940B0188E00E940B0189E00E940B01F1
:100430008091260190912701E3E086319E0761F4C7
:100440000E94EE0080E00E940B0183E00E940B01FD
:1004500087E00E940B01D1CF809126019091270166
:10046000F4E089329F0761F40E94EE0081E00E946F
:100470000B0184E00E940B0185E00E940B01BDCFBF
:10048000809126019091270125E08233920719F48B
:100490000E94EE00B2CF8091260190912701E6E004
:1004A00082379E0761F40E94EE0086E00E940B01F5
:1004B00088E00E940B0189E00E940B019ECF809191
:1004C000260190912701F8E0843D9F0779F40E946E
:1004D000EE0081E00E940B0183E00E940B0185E0A9
:1004E0000E940B0187E00E940B0187CF80912601BB
:1004F000909127012BE08435920761F40E94EE0071
:1005000086E00E940B0188E00E940B0189E00E94B6
:100510000B0173CF8091260190912701EDE0823A83
:100520009E0761F40E94EE0081E00E940B0184E0CE
:100530000E940B0185E00E940B015FCF8091260194
:1005400090912701FEE08C349F0761F40E94EE0039
:1005500080E00E940B0183E00E940B0187E00E9473
:100560000B014BCF80912601909127012FE08E3116
:10057000920779F40E94EE0081E00E940B0182E074
:100580000E940B0184E00E940B0185E00E940B0198
:1005900034CF8091260190912701E0E184309E07BD
:1005A00061F40E94EE0086E00E940B0188E00E9448
:1005B0000B0189E00E940B0120CF809126019091D0
:1005C0002701F1E180339F0779F40E94EE0083E078
:1005D0000E940B0185E00E940B0186E00E940B0146
:1005E00089E00E940B0109CF80912601909127019B
:1005F00022E18636920779F40E94EE0080E00E94A4
:100600000B0181E00E940B0182E00E940B0187E058
:100610000E940B01F2CE8091260190912701E5E125
:1006200084309E0761F40E94EE0086E00E940B0178
:1006300088E00E940B0189E00E940B01DECE8091D0
:10064000260190912701F6E188309F0779F40E94F6
:10065000EE0080E00E940B0181E00E940B0182E02D
:100660000E940B0187E00E940B01C7CE80912601FA
:100670009091270127E18E33920761F40E94EE00EA
:1006800086E00E940B0188E00E940B0189E00E9435
:100690000B01B3CE8091260190912701E7E1823FC3
:1006A0009E0779F40E94EE0083E00E940B0185E032
:1006B0000E940B0186E00E940B0189E00E940B0161
:1006C0009CCE8091260190912701F8E184379F0705
:1006D00079F40E94EE0083E00E940B0185E00E9405
:1006E0000B0186E00E940B0189E00E940B0185CE80
:1006F000809126019091270129E18832920709F023
:100700007BCE0E94EE000E946F00FFCFDF93CF935D
:1007100000D0CDB7DEB79A83898389819A8100970B
:10072000B1F089819A8110C0000000000000000033
:1007300000000000000000000000000000000000B9
:100740000000000000000000019771F701C00000E8
:100750000F900F90CF91DF9108950F931F93DF9328
:10076000CF9300D000D0CDB7DEB79C838B838B8135
:100770009C81009761F08B819C81E8E8F3E13197DF
:10078000F1F70197D1F78F011A83098301C00000A7
:100790000F900F900F900F90CF91DF911F910F91BD
:1007A0000895DF93CF930F92CDB7DEB7898368E9C1
:1007B0007BEA82E090E00E94F50378940F90CF915D
:1007C000DF910895DF93CF93CDB7DEB78CEB90E048
:1007D000FC018081282F21708CEB90E0FC0180814E
:1007E0008071822BCF91DF910895DF93CF93CDB7A6
:1007F000DEB760970FB6F894DEBF0FBECDBF6D8732
:100800007E878F87988BCE0105962CE131E048E0FA
:10081000F90100802F5F3F4FFC010082019641509B
:100820004423B1F71A82198280E09DE2A1E3B1E08E
:100830002D853E854F855889BC01CD010E94730CE2
:10084000DA01C9014097A109B10929813A81220F32
:10085000331FAE014F5F5F4F240F351F2C5F3F4F9B
:10086000F90120813181220F331F990140E050E0CE
:10087000BC01CD010E94730CDA01C9019C838B83FA
:1008800089819A8101969A8389838B819C818F3F8C
:10089000910509F048F68B819C818C30910520F2FE
:1008A00088EB90E02B81FC01208389EB90E029EB21
:1008B00030E0F90120812C7FFC01208389EB90E05E
:1008C00029EB30E0F901308129812150232BFC01F3
:1008D00020838CEB90E024E0FC01208360960FB62F
:1008E000F894DEBF0FBECDBFCF91DF9108951F9268
:1008F0000F920FB60F9211242F933F934F935F9354
:100900008F939F93EF93FF93DF93CF93CDB7DEB792
:1009100089EB90E0FC018081882F90E0887F9070C7
:100920008832910509F470C08932910594F48031C0
:100930009105D1F18131910524F488309105F1F0D0
:10094000CAC088319105B1F18032910509F44AC0DD
:10095000C2C08834910509F451C0893491052CF442
:100960008034910509F444C0B6C08035910509F47E
:1009700077C08835910509F49CC0ADC0109225015F
:10098000109224012BEB30E08091240190912501FD
:10099000AC01465D5E4FFA014081F901408301964A
:1009A00090932501809324018CEB90E025E8FC01D5
:1009B000208396C02BEB30E080912401909125019B
:1009C000AC01465D5E4FFA014081F901408301961A
:1009D00090932501809324018CEB90E025E8FC01A5
:1009E00020837EC08CEB90E025EAFC01208378C058
:1009F0008CEB90E025ECFC01208372C08CEB90E046
:100A000025EAFC0120836CC0809156029091570228
:100A10009C012F5F3F4F8091240190912501821707
:100A20009307C0F42BEB30E08091240190912501D5
:100A3000AC01465D5E4FFA014081F90140830196A9
:100A400090932501809324018CEB90E025E8FC0134
:100A5000208346C08CEB90E024E9FC01208340C059
:100A600080912401909125012BEB30E0F901408128
:100A70009C01265D3E4FF90140830196909325012C
:100A80008093240120912401309125018091560208
:100A9000909157022817390730F48CEB90E025EC41
:100AA000FC0120831DC08CEB90E025E8FC01208335
:100AB00017C080912401909125012BEB30E0F901C2
:100AC0002081865D9E4FFC0120838CEB90E024E921
:100AD000FC01208305C08CEB90E024E0FC01208326
:100AE000CF91DF91FF91EF919F918F915F914F9106
:100AF0003F912F910F900FBE0F901F901895DF938D
:100B0000CF93CDB7DEB700000E94E2038823E1F760
:100B100081E090E0909357028093560284E08093A6
:100B20002A0182E080932B018CEB90E025EAFC0106
:100B3000208300000E94E2038823E1F782E090E036
:100B4000909357028093560285E080932A018CEBA4
:100B500090E025EAFC01208300000E94E203882344
:100B6000E1F780912B01882F90E0382F2227809188
:100B70002C01882F90E0820F931FCF91DF91089571
:100B8000DF93CF9300D0CDB7DEB789836A830000AF
:100B90000E94E2038823E1F783E090E090935702FC
:100BA0008093560284E080932A0182E280932B0195
:100BB000898180932C018A8180932D018CEB90E0B8
:100BC00025EAFC0120830F900F90CF91DF910895CB
:100BD000DF93CF9300D000D0CDB7DEB78A837C837C
:100BE0006B838B819C810E94950C898300000E94FD
:100BF000E2038823E1F78981882F90E002969093A1
:100C000057028093560284E080932A0181E2809308
:100C10002B018A8180932C0183E0898313C0898111
:100C2000882F90E02B813C81F9012081865D9E4FC9
:100C3000FC01208389818F5F89838B819C81019650
:100C40009C838B838B819C81FC018081882339F775
:100C50008CEB90E025EAFC0120830F900F900F9021
:100C60000F90CF91DF910895DF93CF9300D000D004
:100C7000CDB7DEB789837B836A834C8300000E94F3
:100C8000E2038823E1F785E090E090935702809398
:100C9000560284E080932A0183E080932B018981AE
:100CA00080932C018A819B81892F992780932D0124
:100CB0008A8180932E018C8180932F018CEB90E0B0
:100CC00025EAFC0120830F900F900F900F90CF9199
:100CD000DF910895DF93CF9300D000D0CDB7DEB77A
:100CE00089837B836A834C8300000E94E20388230C
:100CF000E1F785E090E0909357028093560284E0FC
:100D000080932A0186E280932B01898180932C01B4
:100D10008A819B81892F992780932D018A818093D5
:100D20002E018C8180932F018CEB90E025EAFC0151
:100D300020830F900F900F900F90CF91DF91089527
:100D4000DF93CF9300D000D0CDB7DEB789837B830C
:100D50006A834C8300000E94E2038823E1F785E068
:100D600090E0909357028093560284E080932A018A
:100D700088E280932B01898180932C018A819B8159
:100D8000892F992780932D018A8180932E018C8150
:100D900080932F018CEB90E025EAFC0120830F90DB
:100DA0000F900F900F90CF91DF910895DF93CF9325
:100DB00000D000D0CDB7DEB789837B836A834C83B4
:100DC00000000E94E2038823E1F785E090E0909321
:100DD00057028093560284E080932A0187E2809331
:100DE0002B01898180932C018A819B81892F9927EE
:100DF00080932D018A8180932E018C8180932F0115
:100E00008CEB90E025EAFC0120830F900F900F906F
:100E10000F90CF91DF910895DF93CF9300D000D052
:100E2000CDB7DEB78B836C8300000E94E20388237A
:100E3000E1F782E190E0909357028093560284E0BC
:100E400080932A0189E280932B018B8180932C016E
:100E50001A8219820DC089819A810396865D9E4F00
:100E60002FEFFC01208389819A8101969A838983DF
:100E70008C81282F30E089819A81821793075CF357
:100E80000DC089819A810396865D9E4F20E2FC0108
:100E9000208389819A8101969A83898389819A81A5
:100EA0008031910574F38CEB90E025EAFC012083FE
:100EB0000F900F900F900F90CF91DF910895DF93D7
:100EC000CF93CDB7DEB700000E94E2038823E1F79D
:100ED00081E090E0909357028093560284E08093E3
:100EE0002A0185E280932B018CEB90E025EAFC013E
:100EF0002083CF91DF910895DF93CF93CDB7DEB7F5
:100F000000000E94E2038823E1F781E090E09093E3
:100F100057028093560284E080932A018DE28093E9
:100F20002B018CEB90E025EAFC01208300000E945D
:100F3000E2038823E1F782E090E0909357028093E8
:100F4000560285E080932A018CEB90E025EAFC01B3
:100F5000208300000E94E2038823E1F780912B01A7
:100F6000CF91DF910895DF93CF9300D0CDB7DEB757
:100F70009A83898300000E94E2038823E1F783E0DB
:100F800090E0909357028093560284E080932A0168
:100F90008CE280932B0189819A81892F99278093F4
:100FA0002C01898180932D018CEB90E025EAFC01D6
:100FB00020830F900F90CF91DF910895DF93CF930F
:100FC000CDB7DEB727970FB6F894DEBF0FBECDBF03
:100FD0009E838D836F8383E090E09C838B830000EE
:100FE0000E94E2038823E1F78F81882F90E0880F29
:100FF000991F880F991F029690935702809356026B
:1010000084E080932A0184E080932B018F81809378
:101010002C011A82198235C089819A81880F991F03
:101020002D813E81820F931FFC0180819181892F48
:101030009927282F8B819C81865D9E4FFC01208300
:101040008B819C8101969C838B8389819A81880FF7
:10105000991F2D813E81820F931FFC018081918118
:10106000282F8B819C81865D9E4FFC0120838B8184
:101070009C8101969C838B8389819A8101969A83B6
:1010800089838F81882F90E09C01220F331F8981F3
:101090009A81821793070CF4BFCF8CEB90E025EA7E
:1010A000FC01208327960FB6F894DEBF0FBECDBF9C
:1010B000CF91DF910895DF93CF9300D0CDB7DEB706
:1010C00089836A8300000E94E2038823E1F783E0BA
:1010D00090E0909357028093560284E080932A0117
:1010E00080E380932B018A8180932C0189818093F6
:1010F0002D018CEB90E025EAFC0120830F900F90EE
:10110000CF91DF910895DF93CF930F92CDB7DEB7E4
:10111000898300000E94E2038823E1F782E090E0E7
:10112000909357028093560284E080932A0188E0CE
:1011300080932B01898180932C018CEB90E025EA30
:10114000FC0120830F90CF91DF910895DF93CF931F
:101150000F92CDB7DEB7898300000E94E203882397
:10116000E1F782E090E0909357028093560284E08A
:1011700080932A018BE280932B01898180932C013B
:101180008CEB90E025EAFC01208300000E94E20342
:101190008823E1F782E090E0909357028093560213
:1011A00085E080932A018CEB90E025EAFC01208306
:1011B00000000E94E2038823E1F780912B010F9049
:1011C000CF91DF910895DF93CF93CDB7DEB70000C5
:1011D0000E94E2038823E1F781E090E090935702B8
:1011E0008093560284E080932A0187E080932B014C
:1011F0008CEB90E025EAFC01208300000E94E203D2
:101200008823E1F782E090E09093570280935602A2
:1012100085E080932A018CEB90E025EAFC01208395
:1012200000000E94E2038823E1F780912B01CF9117
:10123000DF910895DF93CF930F92CDB7DEB7898307
:1012400000000E94E2038823E1F782E090E090939F
:1012500057028093560284E080932A018EE28093A5
:101260002B01898180932C018CEB90E025EAFC0115
:10127000208300000E94E2038823E1F782E090E0EF
:10128000909357028093560285E080932A018CEB5D
:1012900090E025EAFC01208300000E94E2038823FD
:1012A000E1F780912B010F90CF91DF910895DF93AB
:1012B000CF930F92CDB7DEB7898300000E94E2037F
:1012C0008823E1F782E090E09093570280935602E2
:1012D00084E080932A018FE280932B01898180939F
:1012E0002C018CEB90E025EAFC01208300000E9499
:1012F000E2038823E1F782E090E090935702809325
:10130000560285E080932A018CEB90E025EAFC01EF
:10131000208300000E94E2038823E1F780912B01E3
:101320000F90CF91DF910895DF93CF9300D000D03D
:10133000CDB7DEB789836A834B832C8300000E947C
:10134000E2038823E1F785E090E0909357028093D1
:10135000560284E080932A0181E380932B018981E6
:1013600080932C018A8180932D018B8180932E01A3
:101370008C8180932F018CEB90E025EAFC01208387
:101380000F900F900F900F90CF91DF910895DF9302
:10139000CF9300D00F92CDB7DEB789836A834B839A
:1013A00000000E94E2038823E1F784E090E090933C
:1013B00057028093560284E080932A0182E380934F
:1013C0002B01898180932C018A8180932D018B814F
:1013D00080932E018CEB90E025EAFC0120830F9096
:1013E0000F900F90CF91DF910895DF93CF930F92DD
:1013F000CDB7DEB7898300000E94E2038823E1F7BE
:1014000082E090E0909357028093560284E08093AC
:101410002A0185E080932B01898180932C018CEB3C
:1014200090E025EAFC0120830F90CF91DF91089591
:10143000DF93CF930F92CDB7DEB7898300000E9470
:10144000E2038823E1F782E090E0909357028093D3
:10145000560284E080932A0186E080932B018981E3
:1014600080932C018CEB90E025EAFC0120830F9007
:10147000CF91DF910895DF93CF930F92CDB7DEB771
:10148000898300000E94E2038823E1F782E090E074
:10149000909357028093560284E080932A0183E35D
:1014A00080932B01898180932C018CEB90E025EABD
:1014B000FC0120830F90CF91DF910895DF93CF93AC
:1014C000CDB7DEB700000E94E2038823E1F781E098
:1014D00090E0909357028093560282E180932A0114
:1014E00010922B018CEB90E025EAFC012083CF9138
:1014F000DF910895DF93CF93CDB7DEB700000E9450
:10150000E2038823E1F781E090E090935702809313
:10151000560282E180932A0183E080932B018CEBB9
:1015200090E025EAFC012083CF91DF910895DF93BD
:10153000CF93CDB7DEB700000E94E2038823E1F726
:1015400081E090E0909357028093560282E180936D
:101550002A0184E080932B018CEB90E025EAFC01CA
:101560002083CF91DF910895DF93CF930F92CDB772
:10157000DEB7898300000E94E2038823E1F782E05E
:1015800090E0909357028093560282E180932A0163
:1015900085E080932B01898180932C018CEB90E076
:1015A00025EAFC0120830F90CF91DF910895DF930E
:1015B000CF930F92CDB7DEB7898300000E94E2037C
:1015C0008823E1F782E090E09093570280935602DF
:1015D00082E180932A0180E180932B0189818093AD
:1015E0002C018CEB90E025EAFC0120830F90CF9139
:1015F000DF910895DF93CF9300D000D0CDB7DEB751
:101600009C838B8300000E94E2038823E1F78FE034
:1016100090E0909357028093560282E180932A01D2
:1016200081E080932B011A82198214C089819A81EA
:10163000029629813A814B815C81240F351FF90183
:101640002081865D9E4FFC01208389819A810196CD
:101650009A83898389819A818D3091053CF38CEB43
:1016600090E025EAFC0120830F900F900F900F90DF
:10167000CF91DF910895DF93CF9300D000D0CDB705
:10168000DEB79C838B8300000E94E2038823E1F78E
:101690008FE090E0909357028093560282E180930E
:1016A0002A018AE080932B011A82198214C0898151
:1016B0009A81029629813A814B815C81240F351FE2
:1016C000F9012081865D9E4FFC01208389819A81EA
:1016D00001969A83898389819A818D3091053CF3A3
:1016E0008CEB90E025EAFC0120830F900F900F9087
:1016F0000F90CF91DF910895DF93CF9300D000D06A
:1017000000D0CDB7DEB79C838B837E836D830000D2
:101710000E94E2038823E1F782E090E09093570271
:101720008093560282E180932A0182E080932B010C
:101730008B8180932C018CEB90E025EAFC012083C7
:1017400000000E94E2038823E1F78FE090E090938D
:1017500057028093560283E180932A018CEB90E03C
:1017600025EAFC01208300000E94E2038823E1F7C0
:101770001A82198215C089819A812D813E81820F3A
:10178000931F29813A812D5F3F4F265D3E4FF9011E
:101790002081FC01208389819A8101969A83898323
:1017A00089819A818D30910534F326960FB6F8948D
:1017B000DEBF0FBECDBFCF91DF910895DF93CF93F2
:1017C000CDB7DEB700000E94E2038823E1F781E095
:1017D00090E0909357028093560282E180932A0111
:1017E00087E080932B018CEB90E025EAFC012083BD
:1017F00000000E94E2038823E1F782E090E09093EA
:1018000057028093560283E180932A018CEB90E08B
:1018100025EAFC01208300000E94E2038823E1F70F
:1018200080912B01CF91DF910895DF93CF9300D06A
:1018300000D0CDB7DEB79C838B8300000E94E2030B
:101840008823E1F78FE090E090935702809356024F
:1018500082E180932A0188E080932B011A82198209
:1018600014C089819A81029629813A814B815C81D9
:10187000240F351FF9012081865D9E4FFC012083D6
:1018800089819A8101969A83898389819A818D3091
:1018900091053CF38CEB90E025EAFC0120830F904E
:1018A0000F900F900F90CF91DF910895DF93CF931A
:1018B000CDB7DEB700000E94E2038823E1F781E0A4
:1018C00090E0909357028093560282E180932A0120
:1018D00089E080932B018CEB90E025EAFC012083CA
:1018E000CF91DF910895A1E21A2EAA1BBB1BFD0127
:1018F0000DC0AA1FBB1FEE1FFF1FA217B307E407EF
:10190000F50720F0A21BB30BE40BF50B661F771F46
:10191000881F991F1A9469F7609570958095909526
:101920009B01AC01BD01CF010895FC010190002095
:10193000E9F7809590958E0F9F1F0895F894FFCF3B
:10194000646F6C6C792E6D7033004C6F7569652017
:1019500044656D6F005374617274210001000400CE
:041960001000400033
:00000001FF
