:103800000C94341C0C94511C0C94511C0C94511CA1
:103810000C94511C0C94511C0C94511C0C94511C74
:103820000C94511C0C94511C0C94511C0C94511C64
:103830000C94511C0C94511C0C94511C0C94511C54
:103840000C94511C0C94511C0C94511C0C94511C44
:103850000C94511C0C94511C0C94511C0C94511C34
:103860000C94511C0C94511C11241FBECFEFD4E0BA
:10387000DEBFCDBF11E0A0E0B1E0ECE9FFE302C0A4
:1038800005900D92A230B107D9F712E0A2E0B1E0A5
:1038900001C01D92AD30B107E1F70E942D1D0C94BF
:1038A000CC1F0C94001C982F959595959595959502
:1038B000905D8F708A307CF0282F295A8091C0004B
:1038C00085FFFCCF9093C6008091C00085FFFCCFA0
:1038D0002093C6000895282F205DF0CF982F809167
:1038E000C00085FFFCCF9093C6000895EF92FF9231
:1038F0000F931F93EE24FF2487018091C00087FD62
:1039000017C00894E11CF11C011D111D81E2E8168D
:1039100081EAF80687E0080780E0180770F3E09175
:103920000401F091050109958091C00087FFE9CF5E
:103930008091C6001F910F91FF90EF9008950E9413
:10394000761C982F8091C00085FFFCCF9093C60015
:1039500091362CF490330CF09053892F089597559D
:10396000892F08951F930E949F1C182F0E949F1C4F
:103970001295107F810F1F9108951F93182F882390
:1039800021F00E94761C1150E1F71F9108951F93BA
:10399000182F0E94761C803249F0809103018F5FBE
:1039A000809303018530C1F01F9108958091C0007C
:1039B00085FFFCCF84E18093C6008091C00085FF25
:1039C000FCCF1093C6008091C00085FFFCCF80E142
:1039D0008093C6001F910895E0910401F0910501C4
:1039E00009951F9108950E94761C803241F08091C4
:1039F00003018F5F80930301853081F008958091EA
:103A0000C00085FFFCCF84E18093C6008091C00098
:103A100085FFFCCF80E18093C6000895E09104010A
:103A2000F09105010995089548EC50E08823A1F034
:103A30002D9A28EE33E0FA013197F1F7215030400A
:103A4000D1F72D9828EE33E0FA013197F1F72150A4
:103A50003040D1F7815061F708953F924F925F92C5
:103A60006F927F928F929F92AF92BF92CF92DF928E
:103A7000EF92FF920F931F93CF93DF93000089E1A2
:103A80008093C4001092C50088E18093C10086E055
:103A90008093C2005098589A259A81E00E94141D84
:103AA00024E1F22E9EE1E92E84E9D82E06E0C02E14
:103AB00010E1B12EAA24A394B1E49B2EA6E58A2E90
:103AC000F2E57F2EE0E26E2E79E4572E63E5462E76
:103AD00050E5352E0E94761C8033B1F18133B9F167
:103AE000803409F46FC0813409F476C0823409F45B
:103AF00085C0853409F488C0803531F1823521F1E3
:103B0000813511F1853509F485C0863509F48DC0FC
:103B1000843609F496C0843709F403C1853709F463
:103B200072C1863709F466C0809103018F5F80936C
:103B30000301853079F6E0910401F09105010995C2
:103B40000E94761C803351F60E94F31CC3CF0E9462
:103B5000761C803249F78091C00085FFFCCFF0923F
:103B6000C6008091C00085FFFCCF9092C600809176
:103B7000C00085FFFCCF8092C6008091C00085FF09
:103B8000FCCF7092C6008091C00085FFFCCF609290
:103B9000C6008091C00085FFFCCF5092C600809186
:103BA000C00085FFFCCF4092C6008091C00085FF19
:103BB000FCCF3092C6008091C00085FFFCCFB09250
:103BC000C60088CF0E94761C863808F4BDCF0E94BC
:103BD000761C0E94F31C7ECF0E94761C803809F46C
:103BE0009CC0813809F40BC1823809F43CC1883982
:103BF00009F48FC080E00E94C71C6CCF84E10E9452
:103C0000BD1C0E94F31C66CF85E00E94BD1C0E9473
:103C1000F31C60CF0E94761C809306010E94761CE4
:103C2000809307010E94F31C55CF0E94761C8033BD
:103C300009F41DC183E00E94BD1C80E00E94C71CE6
:103C400049CF0E94761C809309020E94761C8093C3
:103C5000080280910C028E7F80930C020E94761CD9
:103C6000853409F415C18091080290910902892BCD
:103C700089F000E010E00E94761CF801E85FFE4F3A
:103C800080830F5F1F4F80910802909109020817EF
:103C9000190788F30E94761C803209F045CF809185
:103CA0000C0280FF01C16091060170910701660F4F
:103CB000771F7093070160930601A0910802B091ED
:103CC00009021097C9F0E8E0F1E09B01AD014E0F49
:103CD0005F1FF999FECF32BD21BD819180BDFA9A57
:103CE000F99A2F5F3F4FE417F50799F76A0F7B1F8B
:103CF00070930701609306018091C00085FFFCCF9F
:103D0000F092C6008091C00085FFFCCFB092C60043
:103D1000E1CE83E00E94C71CDDCE82E00E94C71C7A
:103D2000D9CE0E94761C809309020E94761C809353
:103D300008028091060190910701880F991F9093C6
:103D40000701809306010E94761C853409F4A6C001
:103D500080910C028E7F80930C020E94761C803230
:103D600009F0B8CE8091C00085FFFCCFF092C6006C
:103D7000609108027091090261157105B9F140E086
:103D800050E080910C02A82FA170B82FB27011C022
:103D9000BB2309F45CC0E0910601F0910701319664
:103DA000F0930701E09306014F5F5F4F46175707F7
:103DB000E8F4AA2369F3F999FECF20910601309126
:103DC000070132BD21BDF89A90B58091C00085FFF2
:103DD000FCCF9093C6002F5F3F4F30930701209395
:103DE00006014F5F5F4F4617570718F38091C000D9
:103DF00085FDE5CE8091C00085FFF8CFE0CE81E063
:103E00000E94C71C67CE0E94761C803209F08CCEBF
:103E10008091C00085FFFCCFF092C6008091C00069
:103E200085FFFCCFE092C6008091C00085FFFCCFEB
:103E3000D092C6008091C00085FFFCCFC092C60022
:103E40008091C00085FFFCCFB092C60043CEE091C8
:103E50000601F091070194918091C00085FFFCCF8D
:103E60009093C6009CCF80E10E94C71C33CE0E9475
:103E7000761C0E94761C182F0E94761C112309F4D0
:103E800083C0113009F484C086E00E94C71C22CE92
:103E900080910C02816080930C02E5CE80910C022F
:103EA000816080930C0259CF809107018823880F8D
:103EB000880B8A2180930B02809106019091070163
:103EC000880F991F90930701809306018091080243
:103ED00080FF09C080910802909109020196909399
:103EE000090280930802F894F999FECF1127E09116
:103EF0000601F0910701C8E0D1E08091080290919D
:103F00000902103091F40091570001700130D9F38B
:103F100003E000935700E8950091570001700130CD
:103F2000D9F301E100935700E895099019900091A9
:103F3000570001700130D9F301E000935700E89574
:103F40001395103498F0112700915700017001303B
:103F5000D9F305E000935700E895009157000170F0
:103F60000130D9F301E100935700E89532960297AA
:103F700009F0C7CF103011F00296E5CF11248091DF
:103F8000C00085FFB9CEBCCE8EE10E94C71CA2CD79
:0C3F900084E90E94C71C9ECDF894FFCF6E
:023F9C008000A3
:0400000300003800C1
:00000001FF
