:100000000C9485000C94A2000C94A2000C94A20005
:100010000C94A2000C94A2000C94A2000C94A200D8
:100020000C94A2000C94A2000C94A2000C94A200C8
:100030000C94A2000C94A2000C94A2000C94A200B8
:100040000C94E80E0C94A2000C94A2000C94A20054
:100050000C94A2000C94A2000C94A2000C94A20098
:100060000C94F6020C94A2002503D603D603D60303
:10007000D603D603D603D6033C03D603D603D60352
:10008000D603D603D603D6034203D603D603D6033C
:10009000D603D603D603D6035B03D603D603D60313
:1000A000D603D603D603D6036D03D603D603D603F1
:1000B000D603D603D603D603D603D603D603D60378
:1000C000D603D603D603D603D603D603D603D60368
:1000D000D603D603D603D6036103D603D603D603CD
:1000E000D603D603D603D6036703D603D603D603B7
:1000F000D603D603D603D6039A03D603D603D60374
:10010000D603D603D603D603C40311241FBECFEFF4
:10011000D4E0DEBFCDBF11E0A0E0B1E0E8EEF1E257
:1001200002C005900D92A837B107D9F712E0A8E7F1
:10013000B1E001C01D92A73BB107E1F70E94D00FCB
:100140000C94F2100C940000CF93DF9300D0CDB745
:10015000DEB789836A8389810E9474018A81882F2E
:1001600090E00E94AA0161E482E00E94CA0162E478
:1001700082E00E94CA0161E480E00E94570162E4CB
:1001800080E00E9457018AE290E02AE230E0F90123
:1001900020812064FC0120838AE290E02AE230E0A2
:1001A000F90120812062FC0120830F900F90DF91E4
:1001B000CF910895CF93DF93CDB7DEB769970FB690
:1001C000F894DEBF0FBECDBF698B7A8B8B8B9C8B77
:1001D0004D8B1A8219828AE0E4E4F1E0DE01179681
:1001E00001900D928A95E1F789899A89AB89BC893A
:1001F000880F991FAA1FBB1F880F991FAA1FBB1F1B
:100200009C01AD01220F331F441F551F220F331FC6
:10021000441F551F820F931FA41FB51F29813A81C8
:10022000A9014F5F5F4F5A834983220F331FAE01ED
:100230004F5F5F4F240F351F2A5F3F4FF901208129
:100240003181990140E050E0BC01CD010E94C11014
:10025000DA01C9018B839C83AD83BE838B819C8132
:10026000AD81BE818F3F9105A105B10511F008F068
:10027000BBCF8D89813431F487E490E02B81FC0180
:10028000208308C08D89823429F488E490E02B8192
:10029000FC01208389819A810E94AA0169960FB688
:1002A000F894DEBF0FBECDBFDF91CF910895CF93FD
:1002B000DF9300D0CDB7DEB789836A838A8181342A
:1002C00031F487E490E02981FC01208308C08A8111
:1002D000823429F488E490E02981FC0120830F9086
:1002E0000F90DF91CF910895CF93DF931F92CDB7F9
:1002F000DEB7898384E490E024E430E0F9012081D2
:10030000207FFC01208384E490E024E430E0F901C4
:1003100030812981232BFC01208385E490E025E4B2
:1003200030E0F9012081277FFC01208385E490E003
:1003300025E430E0F9012081422F2981222F30E08D
:10034000220F331F2870242BFC0120830F90DF9194
:10035000CF910895CF93DF9300D0CDB7DEB79A83C6
:10036000898385E490E025E430E0F9012081287F4D
:10037000FC01208385E490E025E430E0F901208150
:10038000322F2981232BFC0120830F900F90DF91C6
:10039000CF910895CF93DF9300D0CDB7DEB7898397
:1003A0006A838A81813401F584E490E024E430E0BA
:1003B000F90120812F73FC01208384E490E024E480
:1003C00030E0F9012081422F2981222F30E00024E2
:1003D000369527950794369527950794322F202D2B
:1003E000242BFC0120831FC08A818234E1F484E441
:1003F00090E024E430E0F90120812F7CFC0120838F
:1004000084E490E024E430E0F9012081422F298146
:10041000222F30E022953295307F3227207F3227FD
:10042000242BFC0120830F900F90DF91CF91089532
:10043000CF93DF9300D0CDB7DEB789836A838A81FB
:100440008130B1F48EE690E02EE630E0F9012081B3
:10045000622F2981422F50E021E030E0042E02C0BB
:10046000220F331F0A94E2F7262BFC01208319C0C8
:100470008A818823B1F48EE690E02EE630E0F9011F
:100480002081622F2981422F50E021E030E0042EAC
:1004900002C0220F331F0A94E2F720952623FC01A5
:1004A00020830F900F90DF91CF910895CF93DF932A
:1004B0001F92CDB7DEB7898368E97BEA82E090E0DE
:1004C0000E947A0278940F90DF91CF910895CF9394
:1004D000DF93CDB7DEB78CEB90E0FC018081282F55
:1004E00021708CEB90E0FC0180818071822BDF9188
:1004F000CF910895CF93DF93CDB7DEB768970FB64E
:10050000F894DEBF0FBECDBF6D877E878F87988B37
:1005100088E0EEE4F1E0DE01159601900D928A95F7
:10052000E1F71A82198280E09DE2A1E3B1E02D8516
:100530003E854F855889BC01CD010E94C110DA016A
:10054000C9014097A109B10929813A81A9014F5FE9
:100550005F4F5A834983220F331FAE014F5F5F4FB6
:10056000240F351F2C5F3F4FF90120813181220F6D
:10057000331F990140E050E0BC01CD010E94C11041
:10058000DA01C9019C838B838B819C818F3F91050C
:1005900009F048F68B819C818C30910520F288EB24
:1005A00090E02B81FC01208389EB90E029EB30E087
:1005B000F90120812C7FFC01208389EB90E029EB5D
:1005C00030E0F901308129812150232BFC01208367
:1005D0008CEB90E024E0FC01208368960FB6F89441
:1005E000DEBF0FBECDBFDF91CF9108951F920F9256
:1005F00000905F000F9211242F933F934F935F93CE
:100600008F939F93AF93BF93EF93FF93CF93DF931A
:10061000CDB7DEB789EB90E0FC018081882F90E0B8
:10062000887F9927AA2797FDA095BA2F48E050E028
:1006300020E530E0841B950B2817390708F4B6C075
:100640008C5C9F4FFC010C94E31010927B01109284
:100650007A012BEB30E080917A0190917B01AC0123
:100660004F5F5F4F50937B0140937A0184589E4FB8
:10067000FC018081F90180838CEB90E025E8FC018E
:10068000208399C02BEB30E080917A0190917B011F
:10069000AC014F5F5F4F50937B0140937A018458C8
:1006A0009E4FFC018081F90180838CEB90E025E86E
:1006B000FC01208380C08CEB90E025EAFC012083C4
:1006C0007AC08CEB90E025ECFC01208374C08CEBAD
:1006D00090E025EAFC0120836EC08091B5029091E4
:1006E000B6029C012F5F3F4F80917A0190917B0170
:1006F00082179307C8F42BEB30E080917A01909138
:100700007B01AC014F5F5F4F50937B0140937A01B7
:1007100084589E4FFC018081F90180838CEB90E02E
:1007200025E8FC01208347C08CEB90E024E9FC0124
:10073000208341C080917A0190917B019C012F5FC1
:100740003F4F30937B0120937A012BEB30E0F9018E
:10075000208184589E4FFC01208320917A013091A2
:100760007B018091B5029091B6022817390730F4C9
:100770008CEB90E025ECFC0120831DC08CEB90E01D
:1007800025E8FC01208317C080917A0190917B01BC
:100790002BEB30E0F901208184589E4FFC0120832F
:1007A0008CEB90E024E9FC01208305C08CEB90E009
:1007B00024E0FC012083DF91CF91FF91EF91BF9165
:1007C000AF919F918F915F914F913F912F910F909A
:1007D00000925F000F901F901895CF93DF93CDB7D5
:1007E000DEB700000E9467028823E1F781E090E015
:1007F0009093B6028093B50284E080937C0182E0FE
:1008000080937D018CEB90E025EAFC0120830000C1
:100810000E9467028823E1F782E090E09093B6029D
:100820008093B50285E080937C018CEB90E025EA13
:10083000FC01208300000E9467028823E1F7809179
:100840007D01882F90E0382F222780917E01882F0C
:1008500090E0820F931FDF91CF910895CF93DF93A4
:1008600000D0CDB7DEB789836A8300000E9467029B
:100870008823E1F783E090E09093B6028093B5027D
:1008800084E080937C0182E280937D018981809362
:100890007E018A8180937F018CEB90E025EAFC0148
:1008A00020830F900F90DF91CF910895CF93DF9326
:1008B00000D000D0CDB7DEB78A837C836B838B8179
:1008C0009C810E94E910898300000E9467028823AE
:1008D000E1F78981882F90E002969093B602809389
:1008E000B50284E080937C0181E280937D018A815E
:1008F00080937E0183E0898313C0898191E0980F02
:100900009983882F90E02B813C81F90120818458C4
:100910009E4FFC0120838B819C8101969C838B835D
:100920008B819C81FC018081882339F78CEB90E0DE
:1009300025EAFC0120830F900F900F900F90DF911C
:10094000CF910895CF93DF9300D000D0CDB7DEB71D
:1009500089837B836A834C8300000E94670288231B
:10096000E1F785E090E09093B6028093B50284E0D1
:1009700080937C0183E080937D01898180937E0157
:100980008A819B81892F992780937F018A81809317
:1009900080018C81809381018CEB90E025EAFC0141
:1009A00020830F900F900F900F90DF91CF910895BB
:1009B000CF93DF9300D000D0CDB7DEB789837B83A0
:1009C0006A834C8300000E9467028823E1F785E078
:1009D00090E09093B6028093B50284E080937C010E
:1009E00086E280937D01898180937E018A819B814B
:1009F000892F992780937F018A81809380018C8140
:100A0000809381018CEB90E025EAFC0120830F901C
:100A10000F900F900F90DF91CF910895CF93DF93B8
:100A200000D000D0CDB7DEB789837B836A834C8347
:100A300000000E9467028823E1F785E090E0909330
:100A4000B6028093B50284E080937C0188E28093B3
:100A50007D01898180937E018A819B81892F9927DD
:100A600080937F018A81809380018C8180938101B2
:100A70008CEB90E025EAFC0120830F900F900F9003
:100A80000F90DF91CF910895CF93DF9300D000D0E6
:100A9000CDB7DEB789837B836A834C8300000E94D5
:100AA00067028823E1F785E090E09093B602809397
:100AB000B50284E080937C0187E280937D01898187
:100AC00080937E018A819B81892F992780937F0162
:100AD0008A81809380018C81809381018CEB90E0EE
:100AE00025EAFC0120830F900F900F900F90DF916B
:100AF000CF910895CF93DF9300D000D0CDB7DEB76C
:100B00008B836C8300000E9467028823E1F782E1F7
:100B100090E09093B6028093B50284E080937C01CC
:100B200089E280937D018B8180937E011A821982F4
:100B30000DC089819A81039684589E4F2FEFFC0146
:100B4000208389819A8101969A8389838C81282FB9
:100B500030E089819A81821793075CF30DC0898107
:100B60009A81039684589E4F20E2FC01208389815C
:100B70009A8101969A83898389819A81803191052E
:100B800074F38CEB90E025EAFC0120830F900F902A
:100B90000F900F90DF91CF910895CF93DF93CDB752
:100BA000DEB700000E9467028823E1F781E090E051
:100BB0009093B6028093B50284E080937C0185E235
:100BC00080937D018CEB90E025EAFC012083DF918E
:100BD000CF910895CF93DF93CDB7DEB700000E9489
:100BE00067028823E1F781E090E09093B60280935A
:100BF000B50284E080937C018DE280937D018CEBD3
:100C000090E025EAFC01208300000E94670288230F
:100C1000E1F782E090E09093B6028093B50285E020
:100C200080937C018CEB90E025EAFC01208300009E
:100C30000E9467028823E1F780917D01DF91CF91C7
:100C40000895CF93DF9300D0CDB7DEB79A83898321
:100C500000000E9467028823E1F783E090E0909310
:100C6000B6028093B50284E080937C018CE280938D
:100C70007D0189819A81892F992780937E018981BD
:100C800080937F018CEB90E025EAFC0120830F909C
:100C90000F90DF91CF910895CF93DF93CDB7DEB75B
:100CA00027970FB6F894DEBF0FBECDBF9E838D830E
:100CB0006F8383E090E09C838B8300000E94670237
:100CC0008823E1F78F81882F90E0880F991F880F84
:100CD000991F02969093B6028093B50284E08093A8
:100CE0007C0184E080937D018F8180937E011A8254
:100CF000198233C08B819C819C012F5F3F4F3C83C5
:100D00002B8329813A81220F331F4D815E81240F6D
:100D1000351FF90120813181232F332784589E4FBD
:100D2000FC0120838B819C819C012F5F3F4F3C8382
:100D30002B8329813A81220F331F4D815E81240F3D
:100D4000351FF9012081318184589E4FFC01208399
:100D500089819A8101969A8389838F81882F90E077
:100D60009C01220F331F89819A818217930714F205
:100D70008CEB90E025EAFC01208327960FB6F894CF
:100D8000DEBF0FBECDBFDF91CF910895CF93DF932C
:100D900000D0CDB7DEB789836A8300000E94670266
:100DA0008823E1F783E090E09093B6028093B50248
:100DB00084E080937C0180E380937D018A8180932D
:100DC0007E01898180937F018CEB90E025EAFC0114
:100DD00020830F900F90DF91CF910895CF93DF93F1
:100DE0001F92CDB7DEB7898300000E946702882377
:100DF000E1F782E090E09093B6028093B50284E040
:100E000080937C0188E080937D01898180937E01BD
:100E10008CEB90E025EAFC0120830F90DF91CF91CD
:100E20000895CF93DF931F92CDB7DEB7898300007B
:100E30000E9467028823E1F782E090E09093B60277
:100E40008093B50284E080937C018BE280937D01E6
:100E5000898180937E018CEB90E025EAFC01208360
:100E600000000E9467028823E1F782E090E09093FF
:100E7000B6028093B50285E080937C018CEB90E014
:100E800025EAFC01208300000E9467028823E1F725
:100E900080917D010F90DF91CF910895CF93DF93E3
:100EA000CDB7DEB700000E9467028823E1F781E03A
:100EB00090E09093B6028093B50284E080937C0129
:100EC00087E080937D018CEB90E025EAFC01208394
:100ED00000000E9467028823E1F782E090E090938F
:100EE000B6028093B50285E080937C018CEB90E0A4
:100EF00025EAFC01208300000E9467028823E1F7B5
:100F000080917D01DF91CF910895CF93DF931F9260
:100F1000CDB7DEB7898300000E9467028823E1F71E
:100F200082E090E09093B6028093B50284E08093D3
:100F30007C018EE280937D01898180937E018CEB20
:100F400090E025EAFC01208300000E9467028823CC
:100F5000E1F782E090E09093B6028093B50285E0DD
:100F600080937C018CEB90E025EAFC01208300005B
:100F70000E9467028823E1F780917D010F90DF9145
:100F8000CF910895CF93DF931F92CDB7DEB78983BA
:100F900000000E9467028823E1F782E090E09093CE
:100FA000B6028093B50284E080937C018FE2809347
:100FB0007D01898180937E018CEB90E025EAFC0124
:100FC000208300000E9467028823E1F782E090E01E
:100FD0009093B6028093B50285E080937C018CEB00
:100FE00090E025EAFC01208300000E94670288232C
:100FF000E1F780917D010F90DF91CF910895CF931C
:10100000DF9300D000D0CDB7DEB789836A834B83EE
:101010002C8300000E9467028823E1F785E090E0BE
:101020009093B6028093B50284E080937C0181E3C3
:1010300080937D01898180937E018A8180937F01E5
:101040008B81809380018C81809381018CEB90E077
:1010500025EAFC0120830F900F900F900F90DF91F5
:10106000CF910895CF93DF9300D01F92CDB7DEB715
:1010700089836A834B8300000E9467028823E1F71B
:1010800084E090E09093B6028093B50284E0809370
:101090007C0182E380937D01898180937E018A8136
:1010A00080937F018B81809380018CEB90E025EA17
:1010B000FC0120830F900F900F90DF91CF91089546
:1010C000CF93DF931F92CDB7DEB7898300000E94D4
:1010D00067028823E1F782E090E09093B602809364
:1010E000B50284E080937C0185E080937D01898155
:1010F00080937E018CEB90E025EAFC0120830F9029
:10110000DF91CF910895CF93DF931F92CDB7DEB7D4
:10111000898300000E9467028823E1F782E090E063
:101120009093B6028093B50284E080937C0186E0C0
:1011300080937D01898180937E018CEB90E025EA8C
:10114000FC0120830F90DF91CF910895CF93DF931F
:101150001F92CDB7DEB7898300000E946702882303
:10116000E1F782E090E09093B6028093B50284E0CC
:1011700080937C0183E380937D01898180937E014C
:101180008CEB90E025EAFC0120830F90DF91CF915A
:101190000895CF93DF9300D0CDB7DEB789836A83FC
:1011A00000000E9467028823E1F783E090E09093BB
:1011B000B6028093B5028981823029F48AE0809357
:1011C0007C0119820CC08981833031F48AE08093DC
:1011D0007C0181E0898303C088E080937C0187E300
:1011E00080937D01898180937E018A8180937F0134
:1011F0008CEB90E025EAFC0120830F900F90DF91AB
:10120000CF910895CF93DF9300D01F92CDB7DEB773
:1012100089837B836A8300000E9467028823E1F749
:1012200084E090E09093B6028093B50288E08093CA
:101230007C0183E580937D01898180937E018A8191
:101240009B81892F990F990B80937F018A818093CD
:1012500080018CEB90E025EAFC0120830F900F9039
:101260000F90DF91CF910895CF93DF9300D0CDB74A
:10127000DEB789836A8300000E9467028823E1F752
:1012800083E090E09093B6028093B50288E080936B
:101290007C018AE480937D01898180937E018A812B
:1012A00080937F018CEB90E025EAFC0120830F9076
:1012B0000F90DF91CF910895CF93DF9300D0CDB7FA
:1012C000DEB789836A8300000E9467028823E1F702
:1012D00083E090E09093B6028093B50288E080931B
:1012E0007C0188E480937D01898180937E018A81DD
:1012F00080937F018CEB90E025EAFC0120830F9026
:101300000F90DF91CF910895CF93DF931F92CDB7C8
:10131000DEB7898300000E9467028823E1F782E03C
:1013200090E09093B6028093B50288E080937C01B0
:1013300089E480937D01898180937E018CEB90E02C
:1013400025EAFC0120830F90DF91CF910895CF9380
:10135000DF9300D0CDB7DEB789836A8300000E9497
:1013600067028823E1F783E090E09093B6028093D0
:10137000B5028981843031F48AE080937C0183E076
:10138000898303C088E080937C0188E380937D019A
:10139000898180937E018A8180937F018CEB90E02C
:1013A00025EAFC0120830F900F90DF91CF910895E3
:1013B000CF93DF9300D01F92CDB7DEB789836A83C6
:1013C0004B8300000E9467028823E1F784E090E0ED
:1013D0009093B6028093B5028981823029F48AE025
:1013E00080937C0119820CC08981833031F48AE0BA
:1013F00080937C0181E0898303C088E080937C0135
:1014000080E580937D01898180937E018A8180932C
:101410007F018B81809380018CEB90E025EAFC01B9
:1014200020830F900F900F90DF91CF910895CF936D
:10143000DF9300D01F92CDB7DEB789836A834B83D9
:1014400000000E9467028823E1F784E090E0909317
:10145000B6028093B5028981823029F48AE08093B4
:101460007C01198208C08981833029F48AE0809345
:101470007C0181E0898382E580937D01898180936D
:101480007E018A8180937F018B81809380018CEB28
:1014900090E025EAFC0120830F900F900F90DF91E0
:1014A000CF910895CF93DF931F92CDB7DEB7898395
:1014B00000000E9467028823E1F782E090E09093A9
:1014C000B6028093B50288E080937C0189E3809323
:1014D0007D01898180937E018CEB90E025EAFC01FF
:1014E000208300000E9467028823E1F782E090E0F9
:1014F0009093B6028093B50289E080937C018CEBD7
:1015000090E025EAFC01208300000E946702882306
:10151000E1F780917D01882F90E0382F222780917C
:101520007E01882F90E0822B932B0F90DF91CF913B
:101530000895CF93DF931F92CDB7DEB78983000064
:101540000E9467028823E1F782E090E09093B60260
:101550008093B50288E080937C018BE480937D01C9
:10156000898180937E018CEB90E025EAFC01208349
:1015700000000E9467028823E1F782E090E09093E8
:10158000B6028093B50289E080937C018CEB90E0F9
:1015900025EAFC01208300000E9467028823E1F70E
:1015A00080917D01882F90E0382F222780917E0145
:1015B000882F90E0822B932B0F90DF91CF9108958D
:1015C000CF93DF931F92CDB7DEB7898300000E94CF
:1015D00067028823E1F782E090E09093B60280935F
:1015E000B50288E080937C018CE480937D01898141
:1015F00080937E018CEB90E025EAFC0120830000C3
:101600000E9467028823E1F782E090E09093B6029F
:101610008093B50289E080937C018CEB90E025EA11
:10162000FC01208300000E9467028823E1F780917B
:101630007D01882F90E0382F222780917E01882F0E
:1016400090E0822B932B0F90DF91CF910895CF9351
:10165000DF931F92CDB7DEB7898300000E94670237
:101660008823E1F782E090E09093B6028093B50280
:1016700088E080937C018DE480937D018981809353
:101680007E018CEB90E025EAFC01208300000E94A3
:1016900067028823E1F782E090E09093B60280939E
:1016A000B50289E080937C018CEB90E025EAFC0197
:1016B000208300000E9467028823E1F780917D016A
:1016C000882F90E00F90DF91CF910895CF93DF9313
:1016D0001F92CDB7DEB7898300000E94670288237E
:1016E000E1F782E090E09093B6028093B50288E043
:1016F00080937C018FE480937D01898180937E01BA
:101700008CEB90E025EAFC0120830F90DF91CF91D4
:101710000895CF93DF9300D0CDB7DEB789836A8376
:1017200000000E9467028823E1F782E090E0909336
:10173000B6028093B5028A81882321F488E08093E1
:101740007C0106C08A81813019F48AE080937C0193
:101750008FE480937D01898180937E018CEB90E002
:1017600025EAFC0120830F900F90DF91CF9108951F
:10177000CF93DF93CDB7DEB700000E9467028823C6
:10178000E1F781E090E09093B6028093B50288E0A3
:1017900080937C018EE480937D018CEB90E025EAC0
:1017A000FC01208300000E9467028823E1F782E0A9
:1017B00090E09093B6028093B50289E080937C011B
:1017C0008CEB90E025EAFC01208300000E94670278
:1017D0008823E1F780917D01DF91CF910895CF9328
:1017E000DF931F92CDB7DEB7898300000E946702A6
:1017F0008823E1F782E090E09093B6028093B502EF
:1018000088E080937C0181E580937D0189818093CC
:101810007E018CEB90E025EAFC0120830F90DF91A4
:10182000CF910895CF93DF931F92CDB7DEB7898311
:1018300000000E9467028823E1F782E090E0909325
:10184000B6028093B50288E080937C0184E58093A2
:101850007D01898180937E018CEB90E025EAFC017B
:10186000208300000E9467028823E1F782E090E075
:101870009093B6028093B50289E080937C018CEB53
:1018800090E025EAFC01208300000E946702882383
:10189000E1F780917D01882F90E0382F22278091F9
:1018A0007E01882F90E0822B932B0F90DF91CF91B8
:1018B00008950F931F93CF93DF9300D0CDB7DEB77A
:1018C0009A8389839A0109811A8106C0C8018C0113
:1018D0000F5F1F4FFC016083C9019C01215031093A
:1018E000181619069CF30F900F90DF91CF911F915E
:1018F0000F9108951F93CF93DF93CDB7DEB710E01C
:1019000004C0212F11E0120F0196FC012081222337
:10191000C1F7812FDF91CF911F910895CF93DF936E
:10192000CDB7DEB700000E9467028823E1F781E0AF
:1019300090E09093B6028093B50282E180937C019F
:1019400010927D018CEB90E025EAFC012083DF9171
:10195000CF910895CF93DF93CDB7DEB700000E94FB
:1019600067028823E1F781E090E09093B6028093CC
:10197000B50282E180937C0183E080937D018CEB52
:1019800090E025EAFC012083DF91CF910895CF9369
:10199000DF93CDB7DEB700000E9467028823E1F72E
:1019A00081E090E09093B6028093B50282E180934B
:1019B0007C0184E080937D018CEB90E025EAFC01C2
:1019C0002083DF91CF910895CF93DF931F92CDB7FE
:1019D000DEB7898300000E9467028823E1F782E076
:1019E00090E09093B6028093B50282E180937C01EF
:1019F00085E080937D01898180937E018CEB90E06E
:101A000025EAFC0120830F90DF91CF910895CF93B9
:101A1000DF931F92CDB7DEB7898300000E94670273
:101A20008823E1F782E090E09093B6028093B502BC
:101A300082E180937C0180E180937D0189818093A4
:101A40007E018CEB90E025EAFC0120830F90DF9172
:101A5000CF910895CF93DF9300D000D0CDB7DEB7FC
:101A60009C838B8300000E9467028823E1F78FE04C
:101A700090E09093B6028093B50282E180937C015E
:101A800081E080937D011A82198214C089819A8134
:101A9000029629813A814B815C81240F351FF9011F
:101AA000208184589E4FFC01208389819A81019670
:101AB0009A83898389819A818D3091053CF38CEBDF
:101AC00090E025EAFC0120830F900F900F900F907B
:101AD000DF91CF910895CF93DF9300D000D0CDB7A1
:101AE000DEB79C838B8300000E9467028823E1F7A6
:101AF0008FE090E09093B6028093B50282E18093EC
:101B00007C018AE080937D011A82198214C0898148
:101B10009A81029629813A814B815C81240F351F7D
:101B2000F901208184589E4FFC01208389819A818C
:101B300001969A83898389819A818D3091053CF33E
:101B40008CEB90E025EAFC0120830F900F900F9022
:101B50000F90DF91CF910895CF93DF9300D000D005
:101B600000D0CDB7DEB79C838B837E836D8300006E
:101B70000E9467028823E1F782E090E09093B6022A
:101B80008093B50282E180937C0182E080937D01A5
:101B90008B8180937E018CEB90E025EAFC01208311
:101BA00000000E9467028823E1F78FE090E09093A5
:101BB000B6028093B50283E180937C018CEB90E0C8
:101BC00025EAFC01208300000E9467028823E1F7D8
:101BD0001A82198215C089819A812D813E81820FD6
:101BE000931F29813A812D5F3F4F24583E4FF901C1
:101BF0002081FC01208389819A8101969A838983BF
:101C000089819A818D30910534F326960FB6F89428
:101C1000DEBF0FBECDBFDF91CF910895CF93DF938D
:101C2000CDB7DEB700000E9467028823E1F781E0AC
:101C300090E09093B6028093B50282E180937C019C
:101C400087E080937D018CEB90E025EAFC01208306
:101C500000000E9467028823E1F782E090E0909301
:101C6000B6028093B50283E180937C018CEB90E017
:101C700025EAFC01208300000E9467028823E1F727
:101C800080917D01DF91CF910895CF93DF9300D0B4
:101C900000D0CDB7DEB79C838B8300000E94670223
:101CA0008823E1F78FE090E09093B6028093B5022D
:101CB00082E180937C0188E080937D011A82198201
:101CC00014C089819A81029629813A814B815C8175
:101CD000240F351FF901208184589E4FFC01208379
:101CE00089819A8101969A83898389819A818D302D
:101CF00091053CF38CEB90E025EAFC0120830F90EA
:101D00000F900F900F90DF91CF910895CF93DF93B5
:101D1000CDB7DEB700000E9467028823E1F781E0BB
:101D200090E09093B6028093B50282E180937C01AB
:101D300089E080937D018CEB90E025EAFC01208313
:101D4000DF91CF910895CF93DF9300D0CDB7DEB769
:101D50009A83898389819A81009709F415C08981C2
:101D60009A8110C000000000000000000000000088
:101D70000000000000000000000000000000000063
:101D800000000000019771F70F900F90DF91CF9145
:101D90000895CF93DF9300D000D0CDB7DEB79C83FA
:101DA0008B838B819C81009709F40BC02B813C8134
:101DB000F90188E893E10197F1F73197D1F79A8318
:101DC00089830F900F900F900F90DF91CF9108951E
:101DD0001F920F9200905F000F9211242F938F9308
:101DE0009F93EF93FF93CF93DF93CDB7DEB786E456
:101DF00090E02EE4FC01208380917801909179019C
:101E000001969093790180937801DF91CF91FF91B2
:101E1000EF919F918F912F910F9000925F000F9003
:101E20001F901895CF93DF9300D0CDB7DEB79A837C
:101E3000898300000E9467028823E1F783E090E035
:101E40009093B6028093B50284E480937C01109253
:101E50007D01898180937E0189819A81892F9927CB
:101E600080937F018CEB90E025EAFC0120830F90AA
:101E70000F90DF91CF910895CF93DF931F92CDB74D
:101E8000DEB7898300000E9467028823E1F782E0C1
:101E900090E09093B6028093B50284E480937C0135
:101EA00081E080937D01898180937E018CEB90E0BD
:101EB00025EAFC0120830F90DF91CF910895CF9305
:101EC000DF9300D000D01F92CDB7DEB79C838B8309
:101ED0006D8383E08A8300000E9467028823E1F714
:101EE0008D81882F90E0880F991F880F991F029687
:101EF0009093B6028093B50284E480937C0182E0E3
:101F000080937D018D8180937E01198231C08A8109
:101F100091E0980F9A83882F90E02981222F30E05A
:101F2000220F331F4B815C81240F351FF901208163
:101F30003181232F332784589E4FFC0120838A81CF
:101F400091E0980F9A83882F90E02981222F30E02A
:101F5000220F331F4B815C81240F351FF901208133
:101F6000318184589E4FFC01208389818F5F898352
:101F70008981282F30E08D81882F90E0880F991F6C
:101F80002817390724F28CEB90E025EAFC01208326
:101F90000F900F900F900F900F90DF91CF910895B9
:101FA000CF93DF93CDB7DEB768970FB6F894DEBF57
:101FB0000FBECDBF19821B821A821C821D821F8216
:101FC0001E8281E0888785E090E00E94AA0160EA95
:101FD00076E881E090E00E947A02789480E00E94A6
:101FE000660B66E571E080E80E9456042091780156
:101FF000309179018A819B8182179307F0F48EE6F4
:1020000090E02EE630E0F90120812E7FFC01208354
:1020100010927901109278018C81882331F441E08B
:1020200068E281E00E94D80908C08C81813029F4DF
:1020300042E068ED81E00E94D8090E94EA058987A4
:1020400089858F3F49F08985992787FD909544E0E0
:10205000BC0180E80E94D8048985813009F5898116
:102060008130F1F010927901109278011C8280E6A3
:1020700099E09B838A838EE690E02EE630E0F901BA
:1020800020812160FC01208367E080E091E00E94D4
:102090005F0F82E691E00E942A0D81E0898356C09D
:1020A0008985823011F589818230F9F010927901A9
:1020B0001092780181E08C8382E390E09B838A8395
:1020C0008EE690E02EE630E0F90120812160FC01EF
:1020D000208363E08CE191E00E945F0F8EE691E047
:1020E0000E942A0D82E0898331C08985843031F4D1
:1020F00041E068E281E00E94D80928C089858630E5
:1021000031F442E068ED81E00E94D8091FC0898562
:10211000853029F461E081E00E94340917C0898587
:10212000873029F480E090E00E94120F0FC089856B
:10213000883029F488E090E00E94120F07C089855A
:10214000893021F480E091E00E94120F81E00E942A
:10215000520A46E0BC0180EC0E94D80481E00E9453
:10216000520A9F838E838E819F81893C910540F026
:102170008885813029F461E081E00E94340936CFFE
:1021800035CFA1E21A2EAA1BBB1BFD010DC0AA1F51
:10219000BB1FEE1FFF1FA217B307E407F50720F0D0
:1021A000A21BB30BE40BF50B661F771F881F991F4B
:1021B0001A9469F760957095809590959B01AC0194
:1021C000BD01CF010895EE0FFF1F0590F491E02DA2
:1021D0000994FC0101900020E9F7809590958E0FFD
:0821E0009F1F0895F894FFCF42
:1021E8006200B603DF00C800D700B004D7000807B4
:1021F8009301B80B9300B80B000000008F00C800D3
:102208009700B0040000B80B0000000000000000B8
:102218008201F4010400F401000000000000000045
:102228000000000001000800400000010004010057
:102238000400100040004461726C612052756C65A6
:1022480073006F314E45574D432E6D703300693220
:082258004D54432E6D7033005C
:00000001FF
