:100000000C9434000C9446000C9446000C9446006A
:100010000C9446000C9446000C9446000C94460048
:100020000C9446000C9446000C9446000C94460038
:100030000C9446000C9446000C9446000C94460028
:100040000C9446000C9446000C9446000C94460018
:100050000C9446000C9446000C9446000C94460008
:100060000C9461000C94460011241FBECFEFD4E025
:10007000DEBFCDBF12E0A0E0B1E001C01D92A03311
:10008000B107E1F70E946E010C946B020C94000022
:10009000DF93CF930F92CDB7DEB789838AEB90E0E1
:1000A0002981222F30E0220F331F2160FC012083A1
:1000B0008CEB90E025ECFC0120830F90CF91DF9139
:1000C00008951F920F920FB60F9211242F933F9312
:1000D0004F935F938F939F93EF93FF93DF93CF9310
:1000E000CDB7DEB789EB90E0FC018081882F90E0EE
:1000F000887F9070803A910509F43DC0813A91055E
:100100003CF48036910581F08038910599F08CC0DF
:10011000883B910509F45AC0803C910509F476C0EA
:10012000883A9105D9F180C08CEB90E025ECFC0178
:1001300020837AC08091000190910101F1E08C321E
:100140009F070CF06EC080910001909101012BEB94
:1001500030E0F90140819C012E5F3E4FF901408360
:10016000019690930101809300018CEB90E025ECC7
:10017000FC01208359C0809100019091010180937E
:100180002E02109201011092000181E080932F0253
:100190008CEB90E024E0FC01208346C02BEB30E0A8
:1001A0008091000190910101AC014E5F5E4FFA0118
:1001B0004081F901408301969093010180930001F1
:1001C0008CEB90E025ECFC0120832EC08091000197
:1001D00090910101F1E08C329F072CF52BEB30E080
:1001E0008091000190910101AC014E5F5E4FFA01D8
:1001F0004081F901408301969093010180930001B1
:100200008CEB90E025ECFC0120830EC08CEB90E0A1
:1002100025ECFC01208310920101109200010000E6
:1002200003C0000001C00000CF91DF91FF91EF916A
:100230009F918F915F914F913F912F910F900FBEA2
:100240000F901F901895DF93CF9300D0CDB7DEB7F6
:100250009A83898389819A810097B1F089819A81F3
:1002600010C00000000000000000000000000000BE
:10027000000000000000000000000000000000007E
:100280000000019771F701C000000F900F90CF910F
:10029000DF9108950F931F93DF93CF9300D000D089
:1002A000CDB7DEB79C838B838B819C81009761F0F7
:1002B0008B819C81E8E8F3E13197F1F70197D1F761
:1002C0008F011A83098301C000000F900F900F90D7
:1002D0000F90CF91DF911F910F910895DF93CF93EE
:1002E0000F92CDB7DEB78AE290E02FEFFC012083BA
:1002F00087E290E02FEFFC01208384E290E02FEF73
:10030000FC01208386E10E944800789401C000002F
:1003100080912F028823D9F380910201882F90E0E9
:1003200081309105F1F0823091051CF4009749F07D
:10033000CAC08230910511F18330910509F46FC074
:10034000C2C085E290E02FE3FC01208388E290E0C8
:1003500023E0FC0120838BE290E025E0FC01208378
:10036000B2C085E290E0FC01108288E290E0FC01DE
:1003700010828BE290E0FC011082A5C08091030105
:10038000898389818630B0F485E290E025E230E00F
:10039000F9012081622F2981422F50E021E030E0D5
:1003A000042E02C0220F331F0A94E2F7262BFC0111
:1003B000208389C08981863051F488E290E028E268
:1003C00030E0F90120812160FC0120837CC089811B
:1003D000873051F488E290E028E230E0F901208192
:1003E0002260FC0120836FC08981883051F48BE248
:1003F00090E02BE230E0F90120812460FC012083B1
:1004000062C08981893009F05BC08BE290E02BE209
:1004100030E0F90120812160FC01208354C08091EB
:100420000301898389818630B8F485E290E025E272
:1004300030E0F9012081622F2981422F50E021E034
:1004400030E0042E02C0220F331F0A94E2F72095F9
:100450002623FC01208337C08981863051F488E24D
:1004600090E028E230E0F90120812E7FFC0120831A
:100470002AC08981873051F488E290E028E230E098
:10048000F90120812D7FFC0120831DC089818830E6
:1004900051F48BE290E02BE230E0F90120812B7FD8
:1004A000FC01208310C08981893061F48BE290E0E7
:1004B0002BE230E0F90120812E7FFC01208303C074
:1004C000000001C000008CEB90E025ECFC012083D3
:0A04D00010922F021DCFF894FFCF09
:00000001FF
