:100000000C9434000C9451000C9451000C94510049
:100010000C9451000C9451000C9451000C9451001C
:100020000C9451000C9451000C9451000C9451000C
:100030000C9451000C9451000C9451000C945100FC
:100040000C9451000C9451000C9451000C945100EC
:100050000C9451000C9451000C9451000C945100DC
:100060000C946C010C94510011241FBECFEFD4E00E
:10007000DEBFCDBF11E0A0E0B1E0E0E0FFE002C0F4
:1000800005900D92A830B107D9F712E0A8E0B1E0D1
:1000900001C01D92A833B107E1F70E9453000C94F0
:1000A0007E070C940000DF93CF93CDB7DEB781E0DD
:1000B0000E94C60001C0000081E00E949B058130C3
:1000C00041F481E061E00E94500588EB91E00E94DC
:1000D000A80482E00E949B05813041F482E061E047
:1000E0000E9450058EEE91E00E94A80483E00E94D9
:1000F0009B05813041F483E061E00E94500586E079
:1001000091E00E94A80484E00E949B05813041F4A4
:1001100084E061E00E94500586E291E00E94A8041C
:1001200081E00E949B05882341F481E060E00E9409
:10013000500580E090E00E94A80482E00E949B05A8
:10014000882341F482E060E00E94500580E090E066
:100150000E94A80483E00E949B05882341F483E069
:1001600060E00E94500580E090E00E94A80484E0D6
:100170000E949B05882309F09ECF84E060E00E94E6
:10018000500580E090E00E94A80496CFDF93CF93C3
:100190000F92CDB7DEB7898368E97BEA82E090E011
:1001A0000E94EA0078940F90CF91DF910895DF9339
:1001B000CF93CDB7DEB78CEB90E0FC018081282F88
:1001C00021708CEB90E0FC0180818071822BCF91BB
:1001D000DF910895DF93CF93CDB7DEB760970FB669
:1001E000F894DEBF0FBECDBF6D877E878F87988B5B
:1001F000CE01059620E031E048E0F90100802F5F54
:100200003F4FFC010082019641504423B1F71A820E
:10021000198280E09DE2A1E3B1E02D853E854F8506
:100220005889BC01CD010E945307DA01C9014097EA
:10023000A109B10929813A81220F331FAE014F5F15
:100240005F4F240F351F2C5F3F4FF9012081318113
:10025000220F331F990140E050E0BC01CD010E9404
:100260005307DA01C9019C838B8389819A810196A6
:100270009A8389838B819C818F3F910509F048F691
:100280008B819C818C30910520F288EB90E02B8152
:10029000FC01208389EB90E029EB30E0F90120811B
:1002A0002C7FFC01208389EB90E029EB30E0F90101
:1002B000308129812150232BFC0120838CEB90E09D
:1002C00024E0FC01208360960FB6F894DEBF0FBED9
:1002D000CDBFCF91DF9108951F920F920FB60F926D
:1002E00011242F933F934F935F938F939F93EF939B
:1002F000FF93DF93CF93CDB7DEB789EB90E0FC019E
:100300008081882F90E0887F90708832910509F471
:1003100070C08932910594F480319105D1F1813119
:10032000910524F488309105F1F0CAC08831910517
:10033000B1F18032910509F44AC0C2C088349105F8
:1003400009F451C0893491052CF48034910509F4E5
:1003500044C0B6C08035910509F477C08835910551
:1003600009F49CC0ADC010920901109208012BEB5A
:1003700030E08091080190910901AC01465F5E4F29
:10038000FA014081F901408301969093090180931D
:1003900008018CEB90E025E8FC01208396C02BEB54
:1003A00030E08091080190910901AC01465F5E4FF9
:1003B000FA014081F90140830196909309018093ED
:1003C00008018CEB90E025E8FC0120837EC08CEBDB
:1003D00090E025EAFC01208378C08CEB90E025ECCE
:1003E000FC01208372C08CEB90E025EAFC012083A5
:1003F0006CC080913602909137029C012F5F3F4F75
:10040000809108019091090182179307C0F42BEBAA
:1004100030E08091080190910901AC01465F5E4F88
:10042000FA014081F901408301969093090180937C
:1004300008018CEB90E025E8FC01208346C08CEBA2
:1004400090E024E9FC01208340C080910801909154
:1004500009012BEB30E0F90140819C01265F3E4F02
:10046000F90140830196909309018093080120913E
:1004700008013091090180913602909137022817C6
:10048000390730F48CEB90E025ECFC0120831DC093
:100490008CEB90E025E8FC01208317C080910801D7
:1004A000909109012BEB30E0F9012081865F9E4F8E
:1004B000FC0120838CEB90E024E9FC01208305C043
:1004C0008CEB90E024E0FC012083CF91DF91FF9141
:1004D000EF919F918F915F914F913F912F910F904D
:1004E0000FBE0F901F901895DF93CF93CDB7DEB757
:1004F00000000E94D7008823E1F781E090E090930C
:1005000037028093360284E080930A0182E0809370
:100510000B018CEB90E025EAFC01208300000E9497
:10052000D7008823E1F782E090E090933702809330
:10053000360285E080930A018CEB90E025EAFC010D
:10054000208300000E94D7008823E1F780910B01EF
:10055000882F90E0382F222780910C01882F90E07F
:10056000820F931FCF91DF910895DF93CF9300D037
:10057000CDB7DEB789836A8300000E94D700882345
:10058000E1F783E090E0909337028093360284E0B5
:1005900080930A0182E280930B01898180930C0190
:1005A0008A8180930D018CEB90E025EAFC01208389
:1005B0000F900F90CF91DF910895DF93CF9300D0EC
:1005C00000D0CDB7DEB78A837C836B838B819C811F
:1005D0000E947507898300000E94D7008823E1F7F5
:1005E0008981882F90E0029690933702809336029B
:1005F00084E080930A0181E280930B018A818093D9
:100600000C0183E0898313C08981882F90E02B81BE
:100610003C81F9012081865F9E4FFC012083898106
:100620008F5F89838B819C8101969C838B838B81D7
:100630009C81FC018081882339F78CEB90E025EACE
:10064000FC0120830F900F900F900F90CF91DF91BE
:100650000895DF93CF9300D000D0CDB7DEB7898364
:100660007B836A834C8300000E94D7008823E1F7D4
:1006700085E090E0909337028093360284E0809387
:100680000A0183E080930B01898180930C018A81A8
:100690009B81892F992780930D018A8180930E0178
:1006A0008C8180930F018CEB90E025EAFC01208384
:1006B0000F900F900F900F90CF91DF910895DF93DF
:1006C000CF9300D000D0CDB7DEB789837B836A8318
:1006D0004C8300000E94D7008823E1F785E090E07A
:1006E000909337028093360284E080930A0186E279
:1006F00080930B01898180930C018A819B81892FD2
:10070000992780930D018A8180930E018C818093BB
:100710000F018CEB90E025EAFC0120830F900F90F5
:100720000F900F90CF91DF910895DF93CF9300D07A
:1007300000D0CDB7DEB789837B836A834C8300000A
:100740000E94D7008823E1F785E090E0909337027C
:100750008093360284E080930A0188E280930B0143
:10076000898180930C018A819B81892F99278093AD
:100770000D018A8180930E018C8180930F018CEB97
:1007800090E025EAFC0120830F900F900F900F90CE
:10079000CF91DF910895DF93CF9300D000D0CDB7F4
:1007A000DEB789837B836A834C8300000E94D70075
:1007B0008823E1F785E090E090933702809336023A
:1007C00084E080930A0187E280930B018981809302
:1007D0000C018A819B81892F992780930D018A8141
:1007E00080930E018C8180930F018CEB90E025EAC1
:1007F000FC0120830F900F900F900F90CF91DF910D
:100800000895DF93CF9300D000D0CDB7DEB78B83B0
:100810006C8300000E94D7008823E1F782E190E01A
:10082000909337028093360284E080930A0189E234
:1008300080930B018B8180930C011A8219820DC069
:1008400089819A810396865F9E4F2FEFFC0120835A
:1008500089819A8101969A8389838C81282F30E03F
:1008600089819A81821793075CF30DC089819A81EF
:100870000396865F9E4F20E2FC01208389819A8146
:1008800001969A83898389819A818031910574F3D5
:100890008CEB90E025EAFC0120830F900F900F90E5
:1008A0000F90CF91DF910895DF93CF93CDB7DEB74F
:1008B00000000E94D7008823E1F781E090E0909348
:1008C00037028093360284E080930A0185E28093A8
:1008D0000B018CEB90E025EAFC012083CF91DF91A6
:1008E0000895DF93CF93CDB7DEB700000E94D70005
:1008F0008823E1F781E090E09093370280933602FD
:1009000084E080930A018DE280930B018CEB90E0F0
:1009100025EAFC01208300000E94D7008823E1F72C
:1009200082E090E0909337028093360285E08093D6
:100930000A018CEB90E025EAFC01208300000E9474
:10094000D7008823E1F780910B01CF91DF910895C3
:10095000DF93CF9300D0CDB7DEB79A8389830000B1
:100960000E94D7008823E1F783E090E0909337025C
:100970008093360284E080930A018CE280930B011D
:1009800089819A81892F992780930C01898180938D
:100990000D018CEB90E025EAFC0120830F900F9075
:1009A000CF91DF910895DF93CF93CDB7DEB727972F
:1009B0000FB6F894DEBF0FBECDBF9E838D836F83CD
:1009C00083E090E09C838B8300000E94D700882303
:1009D000E1F78F81882F90E0880F991F880F991F6A
:1009E0000296909337028093360284E080930A0146
:1009F00084E080930B018F8180930C011A8219820D
:100A000035C089819A81880F991F2D813E81820F7F
:100A1000931FFC0180819181892F9927282F8B8139
:100A20009C81865F9E4FFC0120838B819C81019677
:100A30009C838B8389819A81880F991F2D813E81A8
:100A4000820F931FFC0180819181282F8B819C81D3
:100A5000865F9E4FFC0120838B819C8101969C8345
:100A60008B8389819A8101969A8389838F81882FCC
:100A700090E09C01220F331F89819A81821793078E
:100A80000CF4BFCF8CEB90E025EAFC012083279685
:100A90000FB6F894DEBF0FBECDBFCF91DF910895A2
:100AA000DF93CF9300D0CDB7DEB789836A83000090
:100AB0000E94D7008823E1F783E090E0909337020B
:100AC0008093360284E080930A0180E380930B01D7
:100AD0008A8180930C01898180930D018CEB90E0D9
:100AE00025EAFC0120830F900F90CF91DF910895AC
:100AF000DF93CF930F92CDB7DEB7898300000E94BA
:100B0000D7008823E1F782E090E09093370280934A
:100B1000360284E080930A0188E080930B0189818A
:100B200080930C018CEB90E025EAFC0120830F9070
:100B3000CF91DF910895DF93CF930F92CDB7DEB7BA
:100B4000898300000E94D7008823E1F782E090E0CB
:100B5000909337028093360284E080930A018BE2FF
:100B600080930B01898180930C018CEB90E025EA46
:100B7000FC01208300000E94D7008823E1F782E077
:100B800090E0909337028093360285E080930A01CB
:100B90008CEB90E025EAFC01208300000E94D70046
:100BA0008823E1F780910B010F90CF91DF91089599
:100BB000DF93CF93CDB7DEB700000E94D700882324
:100BC000E1F781E090E0909337028093360284E071
:100BD00080930A0187E080930B018CEB90E025EA7B
:100BE000FC01208300000E94D7008823E1F782E007
:100BF00090E0909337028093360285E080930A015B
:100C00008CEB90E025EAFC01208300000E94D700D5
:100C10008823E1F780910B01CF91DF910895DF9355
:100C2000CF930F92CDB7DEB7898300000E94D70023
:100C30008823E1F782E090E09093370280933602B8
:100C400084E080930A018EE280930B018981809376
:100C50000C018CEB90E025EAFC01208300000E944F
:100C6000D7008823E1F782E090E0909337028093E9
:100C7000360285E080930A018CEB90E025EAFC01C6
:100C8000208300000E94D7008823E1F780910B01A8
:100C90000F90CF91DF910895DF93CF930F92CDB74F
:100CA000DEB7898300000E94D7008823E1F782E045
:100CB00090E0909337028093360284E080930A019B
:100CC0008FE280930B01898180930C018CEB90E083
:100CD00025EAFC01208300000E94D7008823E1F769
:100CE00082E090E0909337028093360285E0809313
:100CF0000A018CEB90E025EAFC01208300000E94B1
:100D0000D7008823E1F780910B010F90CF91DF91FD
:100D10000895DF93CF9300D000D0CDB7DEB789839D
:100D20006A834B832C8300000E94D7008823E1F75D
:100D300085E090E0909337028093360284E08093C0
:100D40000A0181E380930B01898180930C018A81E0
:100D500080930D018B8180930E018C8180930F0114
:100D60008CEB90E025EAFC0120830F900F900F9010
:100D70000F90CF91DF910895DF93CF9300D00F9222
:100D8000CDB7DEB789836A834B8300000E94D7000A
:100D90008823E1F784E090E0909337028093360255
:100DA00084E080930A0182E380930B018981809320
:100DB0000C018A8180930D018B8180930E018CEB55
:100DC00090E025EAFC0120830F900F900F90CF91C7
:100DD000DF910895DF93CF930F92CDB7DEB789836C
:100DE00000000E94D7008823E1F782E090E0909312
:100DF00037028093360284E080930A0185E0809375
:100E00000B01898180930C018CEB90E025EAFC01B9
:100E100020830F90CF91DF910895DF93CF930F92AE
:100E2000CDB7DEB7898300000E94D7008823E1F7A1
:100E300082E090E0909337028093360284E08093C2
:100E40000A0186E080930B01898180930C018CEB71
:100E500090E025EAFC0120830F90CF91DF91089567
:100E6000DF93CF930F92CDB7DEB7898300000E9446
:100E7000D7008823E1F782E090E0909337028093D7
:100E8000360284E080930A0183E380930B01898119
:100E900080930C018CEB90E025EAFC0120830F90FD
:100EA000CF91DF910895A1E21A2EAA1BBB1BFD0171
:100EB0000DC0AA1FBB1FEE1FFF1FA217B307E40739
:100EC000F50720F0A21BB30BE40BF50B661F771F91
:100ED000881F991F1A9469F7609570958095909571
:100EE0009B01AC01BD01CF010895FC0101900020E0
:100EF000E9F7809590958E0F9F1F0895F894FFCF86
:080F0000010004001000400094
:00000001FF
